:020000040800F2
:10000000E0130020E5510008295000082B5000089B
:100010002D5000082F50000831500008000000004B
:100020000000000000000000000000003350000845
:100030003550000800000000375000083950000813
:100040003152000835520008395200083D5200086C
:100050004152000845520008495200084D5200081C
:100060005152000855520008595200083D500008EE
:1000700043500008495000085D52000861520008D2
:1000800065520008695200086D520008715200085C
:1000900075520008795200087D520008815200080C
:1000A00085520008895200088D52000891520008BC
:1000B00095520008995200089D5200084F500008C0
:1000C00055500008A1520008A5520008A952000886
:1000D000AD520008191A0008B1520008B5520008C4
:1000E0005B500008B9520008BD520008C152000818
:1000F000C5520008C9520008CD520008D15200086C
:10010000D5520008D9520008DD520008E15200081B
:10011000E5520008E9520008ED520008F1520008CB
:10012000F5520008F9520008FD520008015300087A
:1001300005530008095300080D5300081153000827
:1001400015530008195300081D53000821530008D7
:1001500025530008295300082D5300083153000887
:1001600035530008395300083D5300084153000837
:1001700045530008495300084D53000851530008E7
:1001800055530008595300085D5300086153000897
:100190006553000800000000695300086D53000813
:1001A0007153000875530008795300086350000824
:1001B0007D530008815300088553000889530008C7
:1001C0008D53000891530008955300089953000877
:1001D0009D530008A153000838B5040001D1012047
:1001E00032BD04F14005687820B90021297020460D
:1001F00000F0D9FE00F040F86068216820F07060DF
:1002000008612068816821F400418160E06821680C
:100210000128A0680CBF40F4004040F4044088600E
:10022000E068022803D120684FF400614160206833
:10023000416841F0007141F4004141602068C168AB
:1002400021F40041C16060692169A269014320680D
:1002500041EA0221C160206AE1692268014311601C
:100260002068016841F001010160002068602021E0
:1002700069702063A87032BD24206870206801680E
:10028000490849000160704700902B46328DD2B278
:100290004146304600F0D2BD2DE9FC4700F05BF846
:1002A00045D10A9C002C1CBF0B9D002D03D14FF49F
:1002B0000071796039E030688169080437D4397891
:1002C000012934D00120387000F056FF212100F0C0
:1002D00055F800F054FA10B10020387025E0B06BEA
:1002E000E0B1DFF8F010C162DFF8EC00B16B4863F9
:1002F0000020B16B0863B16B886321463068338D91
:1003000000F12802B06B00F0A7FF50B9FFF7BCFF67
:1003100000F02AF8306800F061F809E000F013F806
:1003200001E000F008F878603970012000E0022058
:10033000BDE8F6870000202078700021B970786849
:1003400040F010007047202078700021B970786864
:1003500040F080007047064606F1400788467878EE
:10036000202891469A467047718D308D091A718503
:10037000304600213970102100F074BD79704022A0
:10038000BA7000217960746275850F490FF2F1121D
:10039000F1627263718DB1F5807F04D3FF223285E3
:1003A0004FF0807503E0718D31854FF0007501903D
:1003B0005346192000904A4641463046704701682E
:1003C00041F48041016070470000FFFF608DB0F58F
:1003D000807F7047B30C0008010D0008016841F4EC
:1003E0008041016000207047026891691268436B88
:1003F000002B18BF1847704738B501688A690B6829
:10040000D40508D51D0606D5446C44F001044464A7
:100410004FF48075CD61510509D51C0607D5416C97
:1004200041F0080141644FF480640168CC6191059A
:1004300009D51A0607D5416C41F0020141644FF419
:1004400000720168CA61416C11F00B0F03D0BDE866
:10045000344000F0A6BB31BD90F841007047000069
:100460002DE9F041054605F14006D5F82C8030789D
:1004700001280F46144608BF022000F07F800120AB
:10048000B906307005D5A00603D53946284600F0D8
:10049000BCFAF806DFF82C1A30D5E2062ED5688DA6
:1004A000D0B97078282808BFB8F1007F04D1394648
:1004B000284600F044FB5FE07078292808D1884581
:1004C00006D028681021C161284600F0E4FB50E006
:1004D00029681020C8614FE029681020C861B8F170
:1004E000000F706840F0040018BFB8F1807F7060A2
:1004F00042D17168284600F054FB3DE0780715D5DD
:10050000620713D5688D60B12A68506A6A6A1070F4
:10051000686A431C288D6B62421E2A85688D421EC4
:100520006A85688D40BB884526D022E0380706D50D
:10053000210704D53946284600F054F91CE0B807D5
:100540001AD5A10718D5688D68B1686A2A6801783C
:100550009162686A411C6962688D411E6985288DB7
:10056000411E298508E0B8F1807F18BFB8F1000F5F
:1005700002D1284600F0A6F900203070BDE8F081D5
:100580007CB5054605F140042078012801D1022000
:1005900076BD0120CB06207010D5D0060ED52A6876
:1005A0001021D1612021606840F00400606028467D
:1005B00000F058FC284600F06EFB5FE00E0602F0EB
:1005C0004000DFF89C3838D5002836D0286801680C
:1005D00021F0400101602968688D50B34968688D39
:1005E000B0F5807FC1F3090104D3FF222A854FF0C3
:1005F000807307E0688D2885EA6A9A4214BFEB6A27
:100600004FF000730020009028462A8DD2B200F0EF
:1006100015FC698D288D091A698528686178222959
:1006200004D1026842F40042026027E0FFF7C7FEEF
:1006300024E04868810115D410E04E0617D5B0B10A
:10064000688D78B9286841688A0117D4E96A9942A7
:1006500004D1426842F4804242600FE0284600F034
:1006600009F90BE04021284600F09BFA06E08806D5
:1006700004D5920644BF284600F05CF900202070A3
:1006800076BD00002DE9F843064606F14007D6F88E
:100690002C903878002501288846144608BF02208F
:1006A0006BD001205FEA8861387005D5A00603D5BC
:1006B0004146304600F0A9F95FEAC86052D5E1062C
:1006C00050D514F4404F49D0F06B28B1210403D524
:1006D0000268506800B90125B06B20B1610402D5F1
:1006E0000268506800B1DDB17878282808BFB9F1F8
:1006F000007F04D14146304600F021FA3BE0787893
:1007000029282BD1DFF8BC17894527D03268102063
:10071000D061304600F0BFFA304600F0D3F82AE04E
:1007200031681020C861B9F1000F786840F004000A
:10073000786018BFB9F1807F78781CD1212814BF68
:100740002928212004D0222818BF2A2801D12220BC
:1007500030637968304600F024FA0CE031681020EC
:10076000C86108E05FEA087005D5210703D5414656
:10077000304600F037F800203870BDE8F2832DE9EC
:10078000FC4100F017F84FF08073EAB200F056FB1E
:1007900000F024F858B9012D02D000F01CF830B94F
:1007A00000F012F88021204600F0C0FA00B10120CC
:1007B000BDE8F6811746DDF82080099EDFF808279E
:1007C00000921D46044670472068FFB2876200967B
:1007D0004346002270472168380A88623246414603
:1007E0002046C4E22DE9F04100F09FF8697801F05D
:1007F0002801282938D1866981698268C768090C6F
:1008000001F0FE08E168360C022906F00106C2F389
:10081000090207F0FE071AD1D10908F0060301F01A
:1008200006018B420BD1A968491CA960A96802295D
:100830001ED10023AB600827C7612B700EE04FF478
:10084000004100F0E0F8002028703A4606E04FF43E
:10085000004100F0D8F8002028704246314620467A
:10086000BDE8F04100F030BE0821C16100202870D1
:10087000BDE8F08138B5044604F140050020A870B9
:10088000697821290ED1202068701121216300226E
:10089000626300F0B7F800222A702046BDE83240BB
:1008A00000F013BE202068701221216300206063D5
:1008B000022100F0A8F8002028702046BDE8324050
:1008C00000F004BE38B500F030F8016800224B0497
:1008D000AA7002D500F02EF905E0090403D50268DC
:1008E00022F400420260687829280CD1282169701E
:1008F0002122226300F086F800222A702046BDE8FB
:10090000324000F0E4BD68782A280DD128216970B2
:1009100022202063022100F076F800202870204673
:10092000BDE8324000F0D4BD31BD044604F14005BD
:10093000206870477CB50D4604462020216804F1EC
:100940004006C8617278212A04D100F05BF81122B8
:10095000226307E07078222804D1022100F053F8C6
:1009600012202063216800F02EFA00216163E9065D
:10097000DFF8EC04E06206D522681020D0617068D0
:1009800040F0040070607078602806D1680704D5D4
:100990002168486AC0B200900099204600F07BF9B7
:1009A00070687178602900D020B171682046BDE878
:1009B0007C40F6E0707821280AD100F019F803D1C4
:1009C000BDE8764000F085BDBDE8764000F07DBD15
:1009D000707822280AD100F00BF803D1BDE87640E8
:1009E00000F078BDBDE8764000F070BD73BD00003A
:1009F0002021717000202063B178B07030704029E0
:100A000020467047012120466AE2F8B5FFF78DFFC6
:100A10000768687822680E462021212818BF2928F7
:100A2000D16106D148F20101FFF7EDFF21222263D7
:100A300009E0222818BF2A2805D148F20201FFF751
:100A4000E2FF22202063206800F06FF8DFF87C04CA
:100A500021684A6802404A60204600F01CF9780488
:100A600004D5206800F066F8A06B07E0380409D5CB
:100A70002068016821F400410160E06B10B100685A
:100A80004168618570070CD52168486A616A087001
:100A900026F00406606A421C208D626208B100F0F4
:100AA0007AF8608D18B1686840F004006860002032
:100AB000A87000216163686858B16968204600F039
:100AC00070F8687828282DD131462046BDE8F440DA
:100AD00035E0E06ADFF8EC63B0420DD02046FFF766
:100AE000F1FEE66220206870002121632970204613
:100AF000BDE8F24000F0EFBC6878222809D120213F
:100B000069700020206328702046BDE8F24000F0A4
:100B1000DFBC20206870216329702046BDE8F240C8
:100B200000F0D5BCF1BD00283068416841F40041B7
:100B300041607047016821F480410160704738B519
:100B40000446DFF88003E062002204F140052263DE
:100B500020206870AA70490762630ED52068416A38
:100B6000606A0170616A208D4A1C626228B100F0DF
:100B700012F8696841F00401696048F20301FFF767
:100B800042FF20681022C261002129702046BDE882
:100B9000324000F0A0BC401E2085618D481E60855B
:100BA000704770B5044604F1400500226878DFF80C
:100BB000B032AA70E36262856B68194328281CBFB3
:100BC00029282A28696007D10321FFF71CFF282262
:100BD0006A70DFF8FC0209E048F20301FFF713FF37
:100BE000687860281CBF2021697000206063216B39
:100BF000A06B0FF22516C0B1112918BF212914D1FD
:100C0000206801684A0401D5FFF794FFA06B00F04B
:100C100001FC012829D0A06B866300212970A06BFC
:100C200000F059FB28B3A06B1BE0E06BE8B1122980
:100C300018BF222919D1206801680A0403D5016868
:100C400021F400410160E06B00F0E4FB01280CD0CE
:100C5000E06B866300212970E06B00F03CFB40B143
:100C6000E06B816BBDE8704008472046BDE87040EE
:100C700000E070BD00F130014A7C602A06D12023DB
:100C80004B7400220A600A7400F026BC00220A603D
:100C90000A7400F022BC006881698A0744BF002101
:100CA00081628169CA0703D4816941F001018161D0
:100CB000704710B5846A2068026822F4804202609E
:100CC000618D09B920210FE0606A218D01446162C4
:100CD000FFF77CFB27BFFF222285608D208500F077
:100CE00004F800B113E0402106E02068238D00F1F4
:100CF0002802A06B00F0B0BA2046BDE81040B1E079
:100D0000806A01684A6842F400424A6002E0204674
:100D1000BDE81040102144E7806A816B09B10022D0
:100D20008A63C16B09B100228A63A3E72DE9F04110
:100D3000069F05460E4690461C462868816931404C
:100D4000B1420CBF0120002040450DD114F1010F2C
:100D5000F3D000F011FAC01B844201D3002CECD177
:100D600000F021F8012000E00020BDE8F08170B51E
:100D700005460C46164628688169880711D400F09C
:100D80001EF808B1012070BD14F1010FF3D000F07E
:100D9000F3F9801B844201D3002CECD100F003F85E
:100DA000F0E7002070BD05F140002022416841F0CD
:100DB000200141604270002181700170704732460D
:100DC0002146284604E041484A6802404A6070478C
:100DD00070B505460C4628688169C80616462BD5AD
:100DE000286881698A060FD414F1010FF8D000F049
:100DF000C3F9801B844201D3002CF1D105F14000DE
:100E0000416841F0200111E01021C16120202A68D1
:100E1000D0612846FFF73FFF28682C4A41681140FF
:100E2000416005F14000416841F004014160202229
:100E3000FFF7C0FF012070BD002070BD70B50068D5
:100E4000049C4568234E46EA5456B543C1F3090154
:100E5000294341EA024119432143416070BD00002A
:100E60000000FFFF60B5436B1B4D0022AB421CBF6F
:100E70001A4EB34211D10B0448BFB822102908BF43
:100E800042F0900218D0202908BF42F0600213D02F
:100E9000402911D142F040020EE00B0448BFB822B5
:100EA000CB0748BF42F0F2028B0748BF42F0F40282
:100EB000202908BF42F02002006801680A4302604E
:100EC00060BD00000000FFFF0020008000E800FE81
:100ED00061040008FF63FF03810500088506000820
:100EE0000022CB0707D590F84130422203F02803B7
:100EF000282B18BFF2228B0709D590F8413003F058
:100F0000280342F04402282B18BF42F0B0020B0421
:100F100048BF42F0B802102908BF42F0900208D042
:100F2000202908BF42F0200203D0402908BF42F028
:100F300040020068016821EA02020260704730B492
:100F4000002513E050F8042BD30744BFA9F1010397
:100F50009A18091F042942F8045BFAD213468C0739
:100F600044BF15809B1CC90748BF1D7050F8041B67
:100F70000029E7D130BC7047754882B0816841F0E4
:100F800001018160816801F001010091009902680E
:100F900042F080520260006800F08050009000989B
:100FA00002B000F0E2BA38B586B00446142200213F
:100FB000684600F0EBFA21686648814260D1664DD0
:100FC000296841F001012960286800F001000590BE
:100FD0000598296841F0020129604FF400412A6810
:100FE00002F002020592122205980091019201215D
:100FF0000291002204210491039269464FF090402F
:1010000000F0CEFA122101910122029280200021EB
:1010100000900391042204926946504800F0C0FAFF
:10102000E8684F4940F40010E8601122E8684D4D2F
:1010300000F400100590059829601020A860002198
:10104000802028616A60E9606961A961E9612962BB
:10105000284600F097F808B100F010FDA563AC62D7
:10106000002200211F2000F031FD1F2000F04CFD68
:1010700000220021202000F029FD202000F044FD66
:1010800007B030BD70B586B004461422002101A817
:1010900000F07CFA2168344881424FD12E48334E0B
:1010A0000169334D41F001010161016901F0010164
:1010B00000910099026842F0010202600C21006870
:1010C00000F001000090022200980191029200219C
:1010D000039104914FF090400C21059101A900F07B
:1010E0005FFA222070600021B160002000F028F833
:1010F00031613560304600F045F808B100F0BEFCC3
:10110000A667B46205F114001A4E306023217160A5
:101110000020102200F014F8B2603161304600F077
:1011200031F808B100F0AAFC6667B4620022002121
:101130005B2000F0CBFC5B2000F0E6FC06B070BD4D
:10114000F06080217061B061F06130627047000032
:1011500058100240005400404C1002400004004867
:1011600008000240B40E002000800040140F002050
:101170001C000240740F002001480068704700BF47
:101180006C00002038B5040001D1012032BD216877
:10119000DFF81023914204F1240500F044F8022105
:1011A000697020680268A068E16823686FF30E1216
:1011B000024320690A4361690243A0690A43E16965
:1011C0000243206A0A4302431A60204600F041F9B4
:1011D000A068B0F5804F04BF00216160696A207982
:1011E00000F014F838B1052805D2204600F04CF97B
:1011F00000F012F803E0002028636863A863002170
:10120000A961012068702970002032BD0860A96AB8
:10121000E86A486060687047296B00200860696B65
:10122000A86B486070470BD2DFF87C02411814238A
:10123000B1FBF3F18900DFF874222962EA6170479B
:10124000DFF86C0241181422B1FBF2F18900DFF8DB
:1012500064022962E8617047F8B5044604F1240687
:1012600000253078012801D10220F2BD0120307024
:101270007778012F2BD102207070B5612068076844
:101280007F087F000760204600F0C7F82168F068FB
:1012900020B10A6842F00E020A6008E0086820F0F7
:1012A000040008602068016841F00A010160706A6A
:1012B0000168CA0301D500F047F8306B08B100F0AF
:1012C00043F82068016841F00101016001E03570D8
:1012D00002252846F2BD38B500F1240200245178D9
:1012E000022906D00420906101215170147001245C
:1012F00028E001680B6823F00E030B6001680D689D
:101300006D086D000D60516A0B6823F480730B60EB
:10131000012192F82030D56903F01F0399406960DC
:10132000936AD16A5960116B31B10B6823F48073F1
:101330000B60516B936B4B600123537014705169B8
:1013400001B18847204632BD016841F480710160D7
:101350007047F8B500F124010423CA6914680268D3
:10136000156891F8206006F01F0603FA06F73C4264
:1013700010D06F070ED51468A50603D4146824F0A6
:101380000404146000F03DF8C968002938D0BDE8B5
:10139000F4400847022303FA06F73C4213D0AF0794
:1013A00011D51468A50605D4146824F00A04146045
:1013B00001224A7000F025F800220A708968F9B10C
:1013C000BDE8F4400847082303FA06F6344217D074
:1013D0002B0715D5146824F00E041460012291F82F
:1013E0002030CC6903F01F039A40626001228A61B9
:1013F0004A7000220A70096911B1BDE8F44008473B
:10140000F1BD91F82020CC6902F01F029340636087
:101410007047000090F82500704770B5C56C046DEA
:101420006C60446D14B1856DC46D6C60012490F8DE
:101430004450066C05F01F05AC407460046863609E
:101440008068102802D1A260E16070BDA160E260F6
:1014500070BD10B50168134B446C174A994228BF00
:10146000203201F0FF01A4080839142302EB8402A2
:10147000B1FBF3F18264012301F01F010F4AC26442
:1014800003FA01F1016510BD01790D4A0D4B836529
:1014900002EB81024265491E012201F01F018A40D0
:1014A000C265704708040240F8FFFDBF000002401B
:1014B000F8FBFDBF00040240000802408008024023
:1014C000FC0802404009024070477047704770476F
:1014D00070477047704770477047704710B53222A9
:1014E000DFF89C30DFF89440DFF88C1048B900F04A
:1014F0001EF820F48070206017D100F01FF80CD483
:1015000013E0B0F5007F0AD100F011F840F48070CC
:1015100020600AD100F012F807D5032010BD0A6838
:1015200022F4C06242F480620A60002010BD0868A4
:1015300000F4C060B0F5806F206870470C6824F438
:10154000C06444F400740C601868DFF8383042431B
:10155000B2FBF3F0401C00E0401E4A69530501D580
:101560000028F9D14869410570470748016841F4EE
:1015700080410160704700000070004080700040B2
:101580007800002040420F000870004010B504466B
:1015900010460A460146204600F0E2FA204610BDF9
:1015A0002DE9F84F00276A4A6A4B4FF00F080546AD
:1015B0000E4634E0684CA54214BF062405248C4036
:1015C000664944EA0E0441F82C40C143146801EA1C
:1015D000040C7468E40348BF40EA0C0CC2F800C075
:1015E000546801EA040C7468A40348BF40EA0C0C78
:1015F000C2F804C0946801EA040C7468E40248BFAD
:1016000040EA0C0CC2F808C0D46801EA040C716806
:10161000890248BF40EA0C0CC2F80CC07F1C31683C
:1016200031FA07F000F085800124BC4014EA010083
:10163000F4D04FEA470C032101FA0CF16FEA010ED6
:101640007168012918BF022903D0112918BF122976
:1016500012D1A968D6F80C900EEA010109FA0CF92A
:1016600049EA0101A960696821EA04047168C1F3CB
:101670000011B9400C436C60E968B4680EEA0101DE
:1016800004FA0CF42143E960B9007468022C18BF15
:10169000122C12D1FC0805EB840401F01C09D4F8CB
:1016A00020A008FA09FB2AEA0B0AD6F810B00BFAB8
:1016B00009F949EA0A09C4F820902C680EEA040ED8
:1016C000347904F0030404FA0CF444EA0E042C60A8
:1016D0007468E400A2D51C6844F001041C604FEA61
:1016E000970C1C6804F00104009401F00C01009CAC
:1016F0001A4C54F82C4008FA01FE24EA0E0EB5F1FB
:10170000904F08BF002413D0154CA54208BF0124F8
:101710000ED0144CA54208BF022409D0124CA54299
:1017200008BF032404D0114CA5427FF443AF042426
:1017300045E7BDE8F18F0AB181617047816270476A
:101740000B4A136803421CBF106000F013B87047C7
:1017500000040140601002400014004808000140ED
:101760000004004800080048000C00480010004831
:10177000140401407047000038B586B000F024FA28
:1017800000F005F9142101A800F02EFAB24C6068AF
:1017900040F0040060600022606800F004000090E7
:1017A0000098616841F020016160606800F02000ED
:1017B00000900098616841F001016160606800F08C
:1017C000010000900098616841F0020161602021F1
:1017D000606800F00200009000984FF09040FFF722
:1017E000AAFF4FF400509D490190029100220392FC
:1017F00001A99B48FFF7D4FE20210191012200217D
:1018000003910491029201A94FF09040FFF7C8FEA6
:1018100000220021282000F059F9282000F074F956
:10182000206840F004002060216801F0040100916C
:101830000098216841F00101216000212268894C53
:1018400002F001020092002200980B2000F03EF905
:101850000B2000F059F9002200210C2000F036F98D
:101860000C2000F051F9002200210D2000F02EF98B
:101870000D2000F049F97C4820604FF4E1310C2044
:10188000002260616160A260E2602261A261226266
:101890006262A262204600F0ABF908B100F0EEF8F7
:1018A0000021204600F0B4FE08B100F0E7F8002166
:1018B000204600F0B8FE08B100F0E0F8204600F045
:1018C00089FE08B100F0DAF8684D69486949686036
:1018D000A9600020E86001216861A861E8612862D0
:1018E00068622961281DFEF777FC08B100F0C6F890
:1018F0000021281D00F0F8FE08B100F0BFF800211B
:10190000281D00F006FF08B100F0B8F80122691C9C
:10191000204600F04AFA684659A1152200F024FF3B
:10192000642315226946204600F0A2F9002000F049
:1019300027FF00F06CFF00F08DFF002001F010F891
:101940004D4C012001F05CF9286D0028F9D1FFF71A
:1019500013FC206001F044F901F0AEF901F0F3FA54
:1019600001F017FA01F048FA01F081FA01F0B2FA39
:1019700000F0D1FF01F02EFB0128EDD1002001F095
:101980003FF9642001F05EFB01202865D9E780B5AE
:10199000A8B0382105A800F027F91421684600F006
:1019A00023F9542113A800F01FF90020FFF796FD3A
:1019B0004FF4807208920221022205910C920D923E
:1019C0004021042209910E92552102220F9110927A
:1019D0001192129205A801F049FB08B100F04EF8EF
:1019E0000F200321009001910022029203920492A1
:1019F0000421684601F01BFD08B172B6FEE76020C5
:101A00001390002119911A9113A801F045FE08B115
:101A100072B6FEE729B000BD124800F01BBA00689C
:101A20001149884200D0704738B5104C0D4DA07850
:101A3000712804BF002121656078A0702070012208
:101A4000611C284600F070F9611C2846BDE838404A
:101A5000012200F0AAB90000481002400000111055
:101A600000080048A40D002000800040180000205D
:101A700000540040B05F6060D407002072B6FEE7FB
:101A8000554152542075706C6F61646520636865C0
:101A9000636B0A0D000000000901020002D42A480D
:101AA00081547047294B02F00F021A4402F8041CBB
:101AB0007047274B19684FF6FF020002114000F4EF
:101AC000E0600843234908431860704770B5204B15
:101AD0001C68C4F302230124C3F10705052D2EBFA2
:101AE0000F2504FA05F56D1E1E1D072E34BF0023B9
:101AF000DB1E2940994004FA03F3BDE870405B1EE9
:101B00001A401143C8E70000010007D4012200F089
:101B10001F01114B8A40400943F82020704710B53F
:101B2000401EB0F1807F01D3012010BD0B4C6060DE
:101B30000F214FF0FF30FFF7AFFF0021A16007201A
:101B40002060002010BD000000E400E018ED00E07F
:101B50000CED00E00000FA0500E100E010E000E01C
:101B600062F30F2262F31F42401810F0030308D003
:101B7000C91A1FD3DB0748BF00F8012D28BF20F882
:101B8000022D130030B414461546103928BF20E941
:101B90003C00FAD8490728BF20E90C0048BF40F8AC
:101BA000042D890028BF20F8022D48BF00F8012D20
:101BB00030BC7047C91818BF00F8012DCB0728BFEB
:101BC00000F8012D70470000032010B5FFF771FFEA
:101BD000002001F0A7FE0024002814BF0124FFF715
:101BE000CBF9204610BD0000002201F0C1BE00006C
:101BF00038B5040009D004F17C05696809B900F022
:101C00001EF800F021F8012801D1012032BDA06AA0
:101C100008B100F02AF800F00AF821F02A01FFE7E5
:101C2000816000F01BF8BDE8324000F0B2BB2068D4
:101C3000416821F49041416020688168704700202C
:101C400028702046FFF71EBA2421696020680268C8
:101C5000520852000260204600F0E6B92068016890
:101C600041F00101016020467047204600F02EBB84
:101C70002DE9FC47054605F17C048846606820286C
:101C8000174699464DD1B8F1000F14BF002F01201F
:101C900048D02078012844D0012121700020E06044
:101CA0002122626005F15406FFF766FA378082460A
:101CB0007780A868B0F5805F04BF286900280EBF50
:101CC0004746404600270021217080460FE018F863
:101CD000012B826208E02868B8F1000FF7D137F8CD
:101CE000021BC1F3080181627088411E7180534656
:101CF0007088CDF80090002807D000228021284667
:101D000000F074FB0028E6D005E0002240212846C0
:101D100000F06CFB08B1032004E02020606000208C
:101D200000E00220BDE8F68770B5044604F17C05AA
:101D300013466868202836D149B3180027D0287880
:101D4000012830D001222A7004F154062165338025
:101D500073800020E86021216960306AC8B1DFF833
:101D60005815C162DFF85405316A0863316ADFF83B
:101D7000500548630020316A88632068216D00F1B6
:101D80002802306AFFF768FA18B100F055F8012010
:101D900070BD21684020086200222A702068816896
:101DA00041F080014FE0022070BD70B5044604F19F
:101DB0007C051346A86820283CD141B3180026D0E2
:101DC0002878012836D001222A7004F15C06A1652A
:101DD00033800020E8602221A960F069C8B1DFF8F3
:101DE000E414C162DFF8E004F1690863F169DFF827
:101DF000D00448630020F16988632068A26D00F177
:101E00002401F069FFF728FA18B100F015F8012055
:101E100070BD002028702068016841F48071016065
:101E20002068816841F0010181602068816841F08B
:101E3000400108E0022070BD1020E86000212970F8
:101E400020226A6070478160002070BD2068816830
:101E50004A067047F8B5044640F60F022368DD696C
:101E60001F689E682A4007F0200005F020010CD171
:101E7000002912D010B9F00040F19380E16E0029E2
:101E80005BD02046BDE8F4400847DFF8FC26164248
:101E900004BFDFF8F8C617EA0C0F00F082805FEA93
:101EA000C57C48BF5FEAC75E09D54FF0010CC3F897
:101EB00020C0D4F8883043F00103C4F88830AB0761
:101EC0000CD5F3070AD5D4F800E00223CEF8203071
:101ED000D4F8883043F00403C4F888306B070CD57D
:101EE000F3070AD5D4F800E00423CEF82030D4F864
:101EF000883043F00203C4F888302B070CD5002843
:101F000008BF164208D0236808221A62D4F8882035
:101F100042F00802C4F888202A050BD57B0109D5B8
:101F200025684FF400622A62D4F8882042F020022B
:101F3000C4F88820D4F88820002A6ED031B108B9BE
:101F4000F00003D5E16E09B120468847D4F8880037
:101F500021688A68510602D410F0280F1AD0204652
:101F600000F095FAFFF772FF0FD500F057F860B157
:101F70000FF205618163A06FFFF7ADF900284CD027
:101F8000A06F816BBDE8F44008472046BDE8F240F1
:101F900001F007BD204601F004FD0020C4F88800D0
:101FA000F1BDE80209D5710207D54FF4801018621F
:101FB0002046BDE8F24000F095BB280609D5390659
:101FC00001D4300205D5216F39B32046BDE8F44075
:101FD000084768060FD579060DD51A6822F0400229
:101FE0001A602020C4F88000002222672046BDE845
:101FF000F24001F0D7BC280206D5790004D520466E
:10200000BDE8F24001F0CFBCE80148BF002F04D585
:102010002046BDE8F24001F0C7BCF1BD816821F067
:1020200040018160A06F7047F8B50446DFF8641581
:102030002268DFF864E51368A068DFF860750B407C
:102040002169034360690B43E1690343606E0B43FD
:102050000343136000255168E06821F440510143B7
:102060005160A369DFF828158A421CBF206A034328
:102070009668DFF82C050640334393600FF23C5618
:10208000D36A606A1B0940EA0313D3627245DFF822
:1020900014054FF400433FD13F6807F00307032FB7
:1020A00048D8DFE807F0028A799E4FF0010CE16919
:1020B000B1F5004F4FF6F07740F0C680BCF1000F4D
:1020C0000FD0BCF1010F00F0B780BCF1020F0CD0B3
:1020D000BCF1040F00F0B380BCF1080F00F0B28037
:1020E000DFE001F0A9FA002815D0626A616836F8CD
:1020F0001230B0FBF3F04A0802EB4002B2FBF1F001
:1021000080B2A0F11001B942EAD20740C0F3420008
:1021100007432068C760C5E0DFF88CC462452CD156
:102120003F6817F00C076ED0042F46D0082F33D02D
:102130000C2F56D04FF0100C8A42B8D1BCF1000FD2
:1021400009D0BCF1020F0AD0BCF1040F5DD0BCF184
:10215000080F5DD0A5E001F06FFA0028DBD0616ABE
:1021600036F81120B0FBF2F6626802EB42018E42B3
:1021700002D31303B3424DD293E0DFF830C462457B
:102180000DD13F6817F030073DD0102F15D0202F0C
:1021900002D0302F25D0CDE74FF0020CCCE7DFF88E
:1021A00010C462450CD13F6817F0C0072BD0402FF8
:1021B00003D0802FF0D0C02FECE74FF0040CBBE72A
:1021C000DFF8F0C362450FD13F6817F440771AD0AB
:1021D000B7F5807FF1D0B7F5007FDDD0B7F5407F50
:1021E000A8D14FF0080CA7E78A42A3D13F6817F4A3
:1021F000406708D0B7F5806FDFD0B7F5006FCBD060
:10220000B7F5406FC6E7AC4696E701F0E6F9A4E7FC
:102210001846A4E75008002110EB062051EB166188
:10222000002301F0C3FBA0F54076DFF88C73BE42BB
:1022300037D22168C86035E001F006FA53E701F0B3
:10224000CCF950E7184650E7BCF1000F0CD0BCF1B8
:10225000010F1ED0BCF1020F09D0BCF1040F1BD03E
:10226000BCF1080F1BD01CE001F0E6F9D0B1626AA6
:1022700036F812306168B0FBF3F000EB5100B0FBB0
:10228000F1F080B2A0F11001B9420AD22268D06008
:1022900008E001F0D9F9E9E701F09FF9E6E718460F
:1022A000E5E7012504F16800012100234180018058
:1022B000436083602846F2BDB5240008E32400088B
:1022C00029250008E92400082325000890F8281093
:1022D000CA0706D502685368C16A23F400330B436A
:1022E000536090F828108A0706D502685368016B7E
:1022F00023F480330B43536090F828104A0706D527
:1023000002685368416B23F480230B43536090F8B9
:1023100028100A0706D502685368816B23F400432E
:102320000B43536090F82810CA0606D502689368DC
:10233000C16B23F480530B43936090F828108A06F6
:1023400006D502689368016C23F400530B43936035
:1023500090F828104A0610D502685368416C23F49F
:1023600080130B435360436CB3F5801F05D1536852
:10237000816C23F4C0030B43536090F828100A06C5
:1023800006D501684A68C06C22F4002202434A6004
:102390007047F8B5044604F17C050020E8606FF052
:1023A0007E47FEF7E9FE0646206801680A0708D561
:1023B0000097334600224FF40011204600F016F833
:1023C00060B9206801684A070AD5009733460022A1
:1023D0004FF48001204600F009F808B10320F2BD57
:1023E00020206860A86000202870F2BD2DE9F0412F
:1023F000069C05460E4690461F462868C169314036
:10240000B1420CBF01200020404520D114F1010F42
:10241000F3D0FEF7B1FEC01B844200D334B900F004
:1024200018F8002101700320BDE8F08128680168D8
:102430004A07E2D5C1690805DFD54FF400612A6873
:102440001162002200F005F8C1600270EBE7002085
:10245000EAE72868016821F4D07101602868816882
:1024600049084900816005F17C00202141608160BC
:10247000704701680A6822F0C0020A6001688A6831
:1024800022F400028A602021C0F8801070470168A1
:102490000A6822F490720A600549026893680B404A
:1024A00093602022C0F884200021C166704700009C
:1024B000FEFFFFEF816A00680268930644BF08468A
:1024C00001F070BA0020A1F856000868826822F076
:1024D000800282600868FFE7016841F04001016006
:1024E0007047806A01F0E5BA816A00680268930665
:1024F00014D40020A1F85E000868026822F48072FB
:102500000260086882685208520082600868826827
:1025100022F0400282602020C1F884000846FFF7C4
:102520007EBA806A01F0C6BAF8B5846A04F1800503
:1025300004F1560728686E6821688A68110606D576
:10254000212804D1002038802046FFF792FF21681F
:102550008868410606D5222E04D100203881204605
:10256000FFF795FFA86840F01000A8602046BDE87E
:10257000F24001F016BA0000806A00F15601002214
:102580000A810A8001F00DBA010000102001000448
:1025900000800040F369FFCF0038014088100240FE
:1025A000FFF4FF110024F400004400400048004004
:1025B000004C00400050004000FD0F0001000200F0
:1025C0000400060008000A000C0010002000400073
:1025D0008000000110B500F17C010A78012A01D1C8
:1025E000022010BD01220A7024234B600268136888
:1025F00014686408640014600022426623F00053EB
:102600000068036020224A6000230B70002010BD88
:1026100070B500F01FF801D1022070BD00F020F865
:1026200022F0604209E070B500F014F801D10220F8
:1026300070BD00F015F822F0606211438160204601
:1026400000F01CF8206806602021696000222A70D2
:10265000002070BD044604F17C05287801287047ED
:102660000120287024226A602068066802685208E7
:10267000520002602068826870470000FFB500BF0A
:1026800014A200BF15A6D2E9003402A9C1E90034A2
:10269000D6E90071CDE90071416E11B90121012225
:1026A00013E001688A688968520E02F00702490F38
:1026B00002AC655CA45C1DF801101DF80220ED0061
:1026C000E40095FBF1F194FBF2F268304180028066
:1026D000FFBD00000101010307010000080402041E
:1026E000080101017047000030B500F14002537845
:1026F000202B0CD11478012C09D000F01DF824F403
:1027000080541C6003681D682943196020E0022082
:1027100030BD30B500F140025378202B0AD1147837
:10272000012C07D000F008F824F4706444EA012476
:102730001C600DE0022030BD01231370242454706E
:1027400003681D686D086D001D6003681C68704794
:102750000068016841F001010160202050700021F3
:102760001170002030BD00004AB1000011F8013B9B
:10277000521E00F8013B1CBF11F8013BF8E77047FF
:1027800001F099B9F0B42449244AD1F88070566810
:102790001078234C234D6FF0004320BB082005FB2D
:1027A000064637461E46B7FBF6F6401E03FB167676
:1027B000F5D10F46102005FB06469C46B6FBFCFCF7
:1027C00003FB1C663E601E4657F804CB05FB0C4C11
:1027D000BCFBF6F603FB16C6401E47F8046BEAD1B5
:1027E000CF6F0120107005FB06461C4607F01F073F
:1027F000B6FBF4F451F8270003FB146641F8276098
:10280000C1F88000566020F04040F0BC704703499A
:1028100000220A7048607047300E0020F807002040
:102820005FF36E3C0D66190011B583B0DFF8A44369
:102830002046FDF711FE2028FAD1012003A90190BE
:1028400000910123002278212046FDF725FD1FBDC0
:102850000020E9E780B5642000F0F4FBAE20FFF72C
:10286000E3FF2020FFF7E0FF00F078F8B020FFF74B
:10287000DBFFC820FFF7D8FFFFF7EAFF00F06EF894
:102880004020FFF7D1FF8120FFF7CEFFFF20FFF7A9
:10289000CBFFA120FFF7C8FFA620FFF7C5FFA820A8
:1028A000FFF7C2FF3F20FFF7BFFFA420FFF7BCFFE9
:1028B000D320FFF7B9FFFFF7CBFFD520FFF7B4FF19
:1028C000F020FFF7B1FFD920FFF7AEFF2220FFF77E
:1028D000ABFFDA20FFF7A8FF1220FFF7A5FFDB20F0
:1028E000FFF7A2FF2020FFF79FFF8D20FFF79CFF3F
:1028F0001420FFF799FFAF20FFF796FF002000F0AC
:102900002FF800F008F8DFF8D00200210123016061
:102910004371012002BD7CB50024DFF8C052DFF80E
:10292000B462A4F15000C0B2FFF77EFFFFF790FF42
:1029300000F014F83046FDF78FFD2028FAD18020F2
:1029400005EBC4110190009101234022782130460B
:10295000FDF7A2FC641C082CE3DB73BD102063E7C9
:1029600000280CBF0022FF224FF48061DFF86C02C8
:1029700000F0FABF802800DB704770B540290EDAFE
:10298000CB08DFF85452DFF8544200EBC3102B7928
:1029900033B13AB100F00AF822EA0101215470BDC6
:1029A000012AF7D100F002F81143F7E78D0801EB97
:1029B0005576F608225C0123A1EBC60103FA01F16A
:1029C0007047DFF814221080518070472DE9F84FCE
:1029D000DFF804420F46914621883A785218802A3F
:1029E000BFBF61887A785218402AA8BF002029DA30
:1029F0000025ADF8000000E06D1C787885421BD200
:102A00007A68BDF800106688B4F8008000FB0150B9
:102A100032F810A04FF0000BAE1938788345EBD296
:102A20000AFA0BF109040BEB080000F042F800F081
:102A30000BF80BF1010BF0E7618808186080BDF816
:102A40000000C0B2BDE8F28FB1B280B292E72DE9CA
:102A5000F14FDFF88441B4F800800D46914600261E
:102A600000E0761C687886421CD29DF800106A68E7
:102A70006788203900FB016032F810A04FF0000B8E
:102A8000BF1B28788345ECD20AFA0BF002040BEB4B
:102A9000080100F00EF889B2B8B2FFF76BFF0BF136
:102AA000010BEEE72878404420809DF80000BDE847
:102AB000F28F04D4B9F101029241D20F70474A4615
:102AC00070472DE9F84F04468028A8BF7F2494461C
:102AD000BCF1800FA8BF4FF07F0C0D46402DA8BF62
:102AE0003F25402BA8BF3F234FF6FF78644534BFF6
:102AF000ACEB0401A4EB0C019D4234BF581BE81A57
:102B0000644534BF4FF0010BC3469D4209B200B289
:102B100038BF4FF001088842B4BF0F46474207EB69
:102B2000D7770A9E7F10A9B91846A8423CBF2B460A
:102B30000546E346A34588BFA3462DB21C4605E0E3
:102B40003246A9B25846FFF715FF6D1C29B28C42D8
:102B5000F6DA34E0A0B99B46AB4588BFAB46604689
:102B6000A0423CBFA446044625B2644604E0324677
:102B7000594600F028F86D1C29B28C42F7DA1EE0A5
:102B8000ADF802C0ADF800308A4681460BE038B29D
:102B9000CAF100018142BCBFA7EB09075C4448456C
:102BA000BCBF5744454400F010F8BDF80210A0B275
:102BB000884202BFBDF80020A8B29042E7D1BDE82C
:102BC000F18F5246B9B2A8B2D4E63246A9B2A0B249
:102BD000D0E600001C000020D40F002000080020D8
:102BE00080B5FFF7CFFD072290FBF2F2DFF81C144F
:102BF000C2EBC202801A0865486F401C486701BDDD
:102C0000F8B50128DFF804441FD10020FFF7A8FE23
:102C1000002504EB05167168326889B200F09CF853
:102C2000002706E0F068B168C05D0122FFF70FFFE2
:102C30007F1CF06800F048FF8742F3D36D1C042D21
:102C4000E7D3BDE8F140FFF766BE002833D140F27C
:102C5000DC5000F0F7F90020FFF782FE606C226C78
:102C600000F079F8002505E0A16C705D0122FFF706
:102C7000EEFE6D1CE66C304600F026FF8542F3D375
:102C800037210020FFF79DFEA46FDFF884630A2040
:102C900094FBF0F5642394FBF3F000F073F800F07C
:102CA00066F800F05CF8FFF736FEBDE8F24040F64B
:102CB000B83000F0C7B9F1BD2DE9FC410020FFF7A5
:102CC0004FFE7E212520FFF77CFEDFF84003DFF872
:102CD0004063846F0FF2503864200A2194FBF0F0B7
:102CE00094FBF1F500F04EF800F041F800F037F8F1
:102CF000012000903D2380223D2100F029F8012091
:102D000000900323802200F022F8012000903D2350
:102D1000002200F01CF80027BE4CBF4D00261C21ED
:102D2000BE487943014451F82620012A07D158F8BA
:102D3000260055F8272000F00EF800F058F8761C11
:102D4000072EECDB7F1C0F2FE8DBBDE8F3810321AE
:102D50000020FFF7B6BE81B290B2FFF732BE07FB8C
:102D60001544303401223146E0B2FFF770BE0A202C
:102D700095FBF0F007FB1050303001223146C0B215
:102D8000FFF765BE303001223146C0B20A27FFF797
:102D90005EBE2DE9F04700259E4CDFF87C920FF2D5
:102DA000882A9A4FDFF878820026796D08EB0510A3
:102DB00000EB8112386D02EB002151F82620012A28
:102DC0000DD1386EFA6D3018521B5AF8201059F890
:102DD000220089B280B2FFF7F4FD00F008F8761CFB
:102DE000042EE2DB6D1C042DDEDBBDE8F087012242
:102DF00021460020FFF7EABD10B5FEF7BDF9834C70
:102E0000A16D401AB0F5967F05D3E06D401EE065D8
:102E1000FEF7B2F9A06510BDF0B500247B4A00258D
:102E2000031B176D7E4E06EB072C566D0CEB8617B9
:102E300007EB041757F82560012E0ED1002B14D490
:102E40006E18072E11D24FF01C0C744F0CFB03FCB4
:102E5000674457F82660012E07D06D1C042DE0DB77
:102E6000641C042CDBDB0020F0BD0120F0BDF8B5B4
:102E7000664CE56D266E3146681EFFF7CDFF0128D2
:102E800027D100200021236D654A02EB0327626DE4
:102E900007EB821303EB001757F82120012A09D111
:102EA0002F1A1C225D4B5743DA1901EB060C012344
:102EB00042F82C30491C0429E5DB401C0428E1DBE6
:102EC0000E20E0650221002060652166BDE8F1402A
:102ED00086E6F1BD2DE9F04701240E264B4DDFF8C3
:102EE0003C914FF01C0808FB06F0002100224844EA
:102EF00050F82230012B08BF491C521C072AF7DB6F
:102F000007291CD11C2100F0E9FD37460FE008FB22
:102F100007F009EB000A1C220AF11C015046FFF7DA
:102F200023FC1C210AF11C0000F0D8FD7F1C0E2F91
:102F3000EDDBA96F0A2000FB0411A967641C761E53
:102F4000D1D5BDE8F0872DE9F843364E2F4C3178C6
:102F5000256EE06D642908BF6F1C02D0612906D17F
:102F60006F1E3946FFF758FF78BB3D462DE07729A5
:102F70002BD1616D01200022491C00234F1001EB71
:102F800097774FEAA70CA1EB8C07D4F850C0DFF875
:102F900090E00EEB0C2808EB871E0EEB021959F897
:102FA00023C0BCF1010F06D103EB050CACF1010C01
:102FB000BCF1060F03D25B1C042BDFDB00E000201A
:102FC000521C042AD9DB00B167656E20307025667B
:102FD000BDE8F18330B50D48016F491C0729016731
:102FE00012D1036E846EC26D416F9C4204BF456E68
:102FF000954204D1C46EA14201D0012030BDC1660A
:103000008366002142660167002030BD7C070020F6
:1030100008000020000000208C500008000C002058
:103020007C00002018000020040000000C000000BC
:10303000140000001C000000240000002C00000010
:103040003400000038B50446FEF796F814F1010F7D
:10305000054602D0044988680419FEF78DF8401B24
:10306000A042FAD331BD00BF6C0000202DE9F84327
:1030700004006DD02078DFF8E865C10717D500F0AF
:10308000D0F90CD101F0030103290AD06068B0F532
:10309000803F2AD1306840F48030306037E0082823
:1030A000F4D13068810302D56068002850D02178BF
:1030B000880759D500F0B5F943D101F00301022981
:1030C00041D0E06800286AD0316841F480713160F5
:1030D000FEF752F80546306841055DD4FEF74CF81E
:1030E000401B0328F7D3032091E1B0F5A02F3068EF
:1030F00006D140F480203060316841F4803105E031
:1031000020F480303060316821F4802131606068C3
:1031100058B1FEF731F8054630688103C7D4FEF791
:103120002BF8401B6528F7D3DDE7FEF725F80546A9
:1031300030688103BBD5FEF71FF8401B6528F7D325
:10314000D1E70428BDD13068410503D5E0680028E7
:1031500000F05A8100F05DF9DFF81005006800F01A
:10316000E1FB002840F050812078DFF8047501076A
:1031700034D560690028786821D040F0010078607B
:10318000FDF7FAFF05467868810727D4FDF7F4FFBD
:10319000401B0328F7D3A6E700F03BF9E4E73068CB
:1031A00020F480703060FDF7E7FF05463068410588
:1031B000DAD5FDF7E1FF401B0328F7D393E740087A
:1031C00040007860FDF7D8FF05467868810705D58F
:1031D000FDF7D2FF401B0328F7D384E7207841078F
:1031E00063D5B06D0025C10009D4B06D40F08050AA
:1031F000B0650125B06D00F0805000900098DFF8B8
:103200007484D8F80000C10513D4D8F8000040F445
:103210008070C8F80000FDF7AFFF8146D8F80000C5
:10322000C10506D4FDF7A8FFA0EB09000328F5D3DC
:1032300059E7A068012804D1386840F001003860DF
:1032400010E00528386806D140F00400386039687D
:1032500041F0010105E0400840003860396821F084
:1032600004013960A06841F2893860B1FDF784FF3C
:1032700081463868810713D4FDF77EFFA0EB090073
:103280004045F6D32FE7FDF777FF81463868810781
:1032900006D5FDF771FFA0EB09004045F6D322E704
:1032A0001DB1B06D20F08050B0652078810621D529
:1032B000A0690028B8680ED040F00100B860FDF7A2
:1032C0005BFF0546B868810714D4FDF755FF401B26
:1032D0000328F7D307E740084000B860FDF74CFF2C
:1032E0000546B868810705D5FDF746FF401B032852
:1032F000F7D3F8E6E069002800F08880B16801F0B3
:103300000C010C2955D00228306820F08070306004
:103310003AD1FDF731FF05463068810105D5FDF74B
:103320002BFF401B0328F7D3DDE6F068DFF84813D6
:10333000226A0840616A1043491E40EA0110226B6C
:10334000A16A520840EA0120616B521E490840EA16
:103350004250491E40EA4160E16A40EAC160F060C3
:10336000306840F080703060F16841F08071F16049
:10337000FDF702FF04463068810147D4FDF7FCFEEB
:10338000001B0328F7D3AEE6F168DFF8F0028908E6
:103390008900F160F1680140F160FDF7EDFE04463F
:1033A0003068810132D5FDF7E7FE001B0328F7D313
:1033B00099E6012828D0F068226A00F003019142C2
:1033C00001BF00F0F001626A521EB1EB021F1BD177
:1033D000A26A00F4FE41B1EB022F02BF00F0784177
:1033E000E26AB1EBC26F0FD1226B520800F4C00148
:1033F000521EB1EB425F07D1616B490800F0C0601B
:10340000491EB0EB416F01D0012000E00020BDE873
:10341000F2837068216920F0FE4040EA016070602C
:103420007047B068F16800F00C000C2870472DE977
:10343000F04704460027002C894668D0DFF8406238
:1034400000F0C6F804D200F0BDF800F0C1F85ED17B
:103450002078DFF80C52C10741F2893859D56068ED
:10346000DFF820A2032828D1286881014FD5E96818
:10347000E868C0F30310401C01F0030103290CBFEE
:10348000DFF80412DFF8E011B1FBF0F1E868C0F3F7
:1034900006204143E868C0F34160401C4000B1FB96
:1034A000F0F0504519D3A96811F0F00F0ED0207834
:1034B000810712D5A06880B908E00228286824D1C5
:1034C000810324D500F089F8504506D3A86820F080
:1034D000F00040F08000A8608027A9686068890833
:1034E00040EA8101A960FDF747FE8246A86861684D
:1034F00000F00C00B0EB810F0BD0FDF73DFEA0EB10
:103500000A004045F2D303205AE04105DAD40120F5
:1035100056E02068810715D5400703D5A96841F416
:10352000E061A9602078010705D5A86820F4605003
:1035300040F4E060A860A968A06821F0F0010143B0
:10354000A96005E0802F03D1A86820F0F000A860F2
:10355000306800F00F0081450DD200F033F8FDF720
:103560000BFE074600F034F805D0FDF705FEC01B42
:103570004045F7D3C7E72078410705D5AA68E0683A
:1035800022F4E0620243AA602178080706D5A96800
:10359000206921F4605141EAC001A96000F01DF8E2
:1035A000AA683A49C2F30312895C2E4A01F01F014E
:1035B000C8401060BDE8F0472C48006800F0B2B980
:1035C000BDE8F0873168090949EA011131607047A7
:1035D000306800F00F00484570472D49086800F03A
:1035E0000C00042801D120487047086800F00C0046
:1035F000082801D124487047086800F00C000C2806
:1036000018D14A684868C0F30310401C02F0030256
:10361000032A0CBF1C4A144AB2FBF0F24868C0F3FC
:10362000062042434868C0F34160401C4000B2FBA2
:10363000F0F07047002070470A48154A0068136888
:103640001449C3F3022206E00648114A00681368D1
:103650001049C3F3C222895C01F01F01C8407047C2
:1036600000100240780000200024F40070000020C8
:1036700090100240007000400C809F01FFFFEEFEA2
:103680000020024001B4C40400366E01E45000087A
:1036900008100240185200082DE9FC4705464FF07B
:1036A00000082868DFF87062DFF87072010353D5F4
:1036B000F06CC100C1460AD4F06C40F08050F06458
:1036C0004FF00109F06C00F0805000900098DFF896
:1036D0005042206840F480702060FDF74DFD824626
:1036E0002068C10506D4FDF747FDA0EB0A000328BA
:1036F000F6D321E0386810F440701CBF296D884271
:103700000BD03868396841F48031396020F440705A
:103710003A6822F480323A603860C0070FD5FDF76E
:103720002BFD04463868810709D4FDF725FD001BF1
:1037300041F289318842F5D34FF0030805E039683A
:10374000286D21F4407101433960B9F1000F03D0B5
:10375000F06C20F08050F0642878C10705D5F26F36
:103760006868920840EA8202F2672978880705D5DE
:10377000F16FA86821F00C010143F167297848072F
:1037800005D5F16FE86821F030010143F167297830
:10379000080705D5F16F286921F0C0010143F167E1
:1037A0002978C80605D5F16F686921F44071014395
:1037B000F1672978880605D5F16FA86921F4406181
:1037C0000143F1672978480605D5F16FE86921F4CE
:1037D00040510143F1672978080605D5F16F286A41
:1037E00021F440410143F1672968C80505D5F16F0F
:1037F000686A21F440310143F1672968880305D5DF
:10380000F968A86A890840EA8101F9602968880591
:1038100005D5F16FE86A21F440210143F167296879
:1038200048050AD5F16F286B21F440110143F16777
:10383000296BB1F5801F00F069F8296808050AD5E1
:10384000F16F686B21F440010143F167696BB1F5D9
:10385000800F00F05BF82968C8040AD5F16FA86BE7
:1038600021F040710143F167A96BB1F1807F00F055
:103870004DF82968880408D5F16FE86B21F04061A4
:103880000143F167E96B00F03FF82968480408D567
:10389000F16F286C21F040610143F167296C00F061
:1038A00033F8296808040AD5F16F686C21F040519B
:1038B0000143F167696CB1F1805F00F01FF829687E
:1038C000C8030AD5F16FA86C21F040410143F167AC
:1038D000A96CB1F1804F00F011F8296848030AD5AE
:1038E000F968E86C21F440110143F960E96CB1F525
:1038F000001F00F00BF84046BDE8F68703D13068A2
:1039000040F4803030607047B1F1006F03D130680F
:1039100040F48010306070470C100240901002405C
:103920000070004070B50E4E0446B0680025A0B18E
:103930004FF47A710B4AB1FBF0F11068B0FBF1F073
:10394000FEF7EDF848B9102C07D2002221464FF0BF
:10395000FF30FEF7BBF8746000E00125284670BD1B
:103960006C0000207800002062F30F2262F31F42F7
:1039700000B500BF130096469446103928BFA0E852
:103980000C50FAD85FEA417C28BF0CC048BF40F811
:10399000042BC90728BF20F8022B48BF00F8012BD1
:1039A00000BD70477047704770470000D3BBD9B166
:1039B000B2F5803F5BD2022A1ED98C46B1FBF2F1F0
:1039C00002FB11C31B0443EA1043B3FBF2FC02FBEE
:1039D0001C3380B240EA0343B3FBF2F002FB103227
:1039E00040EA0C4000237047022A05D98446B0FB08
:1039F000F2F002FB10C270474AB105D100F001029B
:103A000049085FEA3000704700220023704700F049
:103A100069B80B000200002100207047F7D3002294
:103A200000237047904271EB030CF2D370B5B1FAEA
:103A300081F4B3FA83F52C1BA340C4F1200532FABC
:103A400005F63343A2405FF00046E64002E05B0823
:103A50005FEA3202841A71EB030524BF204629462F
:103A60007641F4D302000B003000002170BD70B528
:103A7000B1FA81F4B2FA82F5C4F120046419B4F108
:103A80002006DAD3B2405FF00044F440002502E0A3
:103A900052085FEA3303C61A71EB020E24BF3046A8
:103AA000714664416D41F3D302000B0020002900F0
:103AB00070BD7047704700B5020000211120ABBEF9
:103AC000002A00D0106000BD00F1010310F8011BB6
:103AD00011B110F8011BFBE7C01A70470022FEF776
:103AE00043B8000070470000000000000000000024
:103AF00000000000000000000000000000000000C6
:103B00000000000000000000000000000000000CA9
:103B1000000C000C000C000C000C000C000C000C45
:103B2000000C000C0000000C000C00000000000065
:103B30000000001B001B001B001B001B00000000FE
:103B40000000000000000000000000000000000075
:103B50000000000000008019801980198019C07FC2
:103B6000C07F80190033C07FC07F00330033003333
:103B700000330000000000000000001E003F8075C0
:103B800080650074003C001E00078005806580652C
:103B90008075003F001E000400040000000000705B
:103BA00000D840D8C0D880D900730006000C801B14
:103BB000C036C066C046C00680030000000000009A
:103BC0000000001E003F003300330033001E000CD5
:103BD000C03CC066806380618063C03E801C000082
:103BE000000000000000000C000C000C000C000C99
:103BF00000000000000000000000000000000000C5
:103C0000000000000000000080000001000300062A
:103C100000060004000C000C000C000C000C000C52
:103C200000040006000600030001800000200010D0
:103C30000018000C000C0004000600060006000638
:103C4000000600060004000C000C00180010002004
:103C50000000000C002D003F001E0033000000009B
:103C60000000000000000000000000000000000054
:103C700000000000000000000000000C000C000C20
:103C8000000CC0FFC0FF000C000C000C000C00007A
:103C90000000000000000000000000000000000024
:103CA0000000000000000000000000000000000014
:103CB0000000000C000C00040004000800000000DC
:103CC0000000000000000000000000000000001ED6
:103CD000001E0000000000000000000000000000C6
:103CE00000000000000000000000000000000000D4
:103CF00000000000000000000000000C000C0000AC
:103D0000000000000000000300030003000600069E
:103D100000060006000C000C000C000C0018001837
:103D200000180000000000000000001E003F0033EB
:103D3000806180618061806D806D80618061806163
:103D40000033003F001E00000000000000000006DD
:103D5000000E001E003600260006000600060006C3
:103D60000006000600060006000600000000000035
:103D70000000001E003F80738061806180010003AD
:103D80000006000C001800300060807F807F00007B
:103D9000000000000000001C003E00630063000300
:103DA000000E000E00038001800180618073003FDF
:103DB000001E00000000000000000006000E000EC3
:103DC000001E001E0016003600360066807F807FD1
:103DD0000006000600060000000000000000007F52
:103DE000007F006000600060006E007F80638001E3
:103DF000800180618073003F001E00000000000011
:103E00000000001E003F803380610060006E007F74
:103E100080738061806180618033003F001E0000FC
:103E2000000000000000807F807F8001000300030D
:103E300000060006000C000C000C0008001800181A
:103E400000180000000000000000001E003F80631A
:103E5000806180610021001E003F8061806180617F
:103E60008061003F001E0000000000000000001EF6
:103E7000003F00738061806180618073803F801D9E
:103E8000800180610073003F001E00000000000000
:103E900000000000000000000000000C000C00000A
:103EA00000000000000000000000000C000C0000FA
:103EB0000000000000000000000000000000000002
:103EC000000C000C00000000000000000000000CCE
:103ED000000C0004000400080000000000000000C6
:103EE00080008003000E003800600038000E800360
:103EF0008000000000000000000000000000000042
:103F0000000000000000807F807F00000000807FB4
:103F1000807F0000000000000000000000000000A2
:103F2000000000000000000000400070001C0007BE
:103F300080010007001C007000400000000000002D
:103F4000000000000000001F803FC071C060C00082
:103F5000C00180030007000E000C000C0000000CE4
:103F6000000C0000000000000000001E003F803137
:103F700080718063806F806D806D806F806700606E
:103F80000032003E001C0000000000000000000E97
:103F9000000E001B001B001B001B80318031803F86
:103FA000803F8031C060C060C06000000000000041
:103FB0000000007C007E0063006300630063007EFD
:103FC000007E0063806180618063007F007E00006E
:103FD000000000000000001E003F80318061006092
:103FE0000060006000600060006080618031003F20
:103FF000001E0000000000000000007C007F006345
:104000008063806180618061806180618061006324
:104010000063007E007C0000000000000000807F44
:10402000807F0060006000600060007F007F0060B3
:10403000006000600060807F807F00000000000062
:104040000000807F807F0060006000600060007F73
:10405000007F0060006000600060006000600000A1
:10406000000000000000001E003F80318061006001
:104070000060006080638063806180618031803F88
:10408000001E00000000000000008061806180616F
:10409000806180618061807F807F806180618061DC
:1040A0008061806180610000000000000000003F2E
:1040B000003F000C000C000C000C000C000C000C6D
:1040C000000C000C000C003F003F0000000000004E
:1040D0000000800180018001800180018001800159
:1040E00080018001806180618073003F001E0000BC
:1040F000000000000000C060806100630066006690
:10410000006C0078007C006600660063806180615E
:10411000C06000000000000000000060006000605F
:10412000006000600060006000600060006000608F
:104130000060807F807F0000000000000000C071F0
:10414000C071C07BC07AC06AC06AC06EC064C06003
:10415000C060C060C060C060C060000000000000BF
:10416000000080718071807980798079806D806DA8
:10417000806D8065806780678067806380630000F2
:10418000000000000000001E003F003380618061DD
:104190008061806180618061806180610033003F67
:1041A000001E0000000000000000007E007F806311
:1041B0008061806180618063007F007E00600060BC
:1041C0000060006000600000000000000000001EB1
:1041D000003F003380618061806180618061806127
:1041E000806580670033803F401E000000000000B3
:1041F0000000007E007F8063806180618063007FBB
:10420000007E00660063006380618061C060000022
:10421000000000000000000E001F803180310030DF
:104220000038001E00078003806180618031003FFC
:10423000001E0000000000000000C0FFC0FF000CD6
:10424000000C000C000C000C000C000C000C000C0E
:10425000000C000C000C0000000000000000806159
:104260008061806180618061806180618061806146
:10427000806180618073003F001E0000000000002C
:104280000000C060C060C060803180318031001BA0
:10429000001B001B001B000E000E000E000400009F
:1042A000000000000000C0C0C0C0C0C0C0C0C0C08E
:1042B000C0CC804C804C805E805280528073806184
:1042C00080610000000000000000C0C080608061CC
:1042D0000033003B001E000C000C001E001F003BC2
:1042E00080718061C0C00000000000000000C0C0FC
:1042F0008061806100330033001E001E000C000C42
:10430000000C000C000C000C000C00000000000071
:104310000000803F803F8001000300030006000C86
:10432000000C0018001800300060807F807F0000C3
:1043300000000000000F000F000C000C000C000C2F
:10434000000C000C000C000C000C000C000C000C0D
:10435000000C000C000F000F0000001800180018DF
:10436000000C000C000C000C000600060006000605
:10437000000300030003000000000000001E001EF8
:1043800000060006000600060006000600060006FD
:10439000000600060006000600060006001E001EBD
:1043A0000000000C000C001E00120033003380617E
:1043B000806100000000000000000000000000001C
:1043C00000000000000000000000000000000000ED
:1043D00000000000000000000000000000000000DD
:1043E00000000000E0FF0000000000380018000C92
:1043F00000000000000000000000000000000000BD
:1044000000000000000000000000000000000000AC
:10441000000000000000001F803F80618001801FBD
:10442000803F80618063807FC03800000000000012
:1044300000000060006000600060006E007F80731C
:1044400080618061806180618073007F006E000008
:104450000000000000000000000000000000001E3E
:10446000003F807380610060006080618073003F66
:10447000001E00000000000000008001800180019B
:104480008001801D803F80738061806180618061D8
:104490008073803F801D00000000000000000000CD
:1044A000000000000000001E003F00738061807F5C
:1044B000807F00608071003F001E0000000000004F
:1044C0000000C007C00F000C000C807F807F000C34
:1044D000000C000C000C000C000C000C000C000088
:1044E000000000000000000000000000801D803F70
:1044F000807380618061806180618073803F801DF6
:1045000080018063007F003E00000060006000606A
:104510000060006F807F8071806180618061806158
:1045200080618061806100000000000000000006E2
:10453000000600000000003E003E000600060006E7
:10454000000600060006000600060000000000004D
:104550000006000600000000003E003E00060006C7
:1045600000060006000600060006000600060046DB
:10457000007E003C00000060006000600060806120
:1045800000630066006C007C00760063006380615D
:10459000C0600000000000000000003E003E000679
:1045A00000060006000600060006000600060006DB
:1045B00000060006000600000000000000000000E9
:1045C00000000000000080DDC0FFC0CEC0CCC0CC29
:1045D000C0CCC0CCC0CCC0CCC0CC0000000000001F
:1045E00000000000000000000000006F807F80716C
:1045F0008061806180618061806180618061000094
:104600000000000000000000000000000000001E8C
:10461000003F807380618061806180618073003FB2
:10462000001E00000000000000000000000000006C
:10463000006E007F80738061806180618061807323
:10464000007F006E006000600060006000000000FD
:1046500000000000801D803F807380618061806168
:1046600080618073803F801D800180018001800116
:10467000000000000000000000000067803F0039DB
:1046800000300030003000300030003000300000DA
:104690000000000000000000000000000000001EFC
:1046A000803F80610060007F803F80018061007FEB
:1046B000001E0000000000000000000000080018BC
:1046C0000018007F007F001800180018001800185C
:1046D0000018801F800F0000000000000000000094
:1046E0000000000000008061806180618061806165
:1046F000806180618063807F803D00000000000059
:1047000000000000000000000000C0608031803127
:104710008031001B001B001B000E000E0006000075
:10472000000000000000000000000000000080DD2C
:1047300080DD80DD005500550055007700770022B0
:104740000022000000000000000000000000000047
:104750000000806100330033001E000C000C001EBE
:104760000033003380610000000000000000000002
:104770000000000080618061803100330033001B45
:10478000001B001B000E000E000E001C007C0070C1
:1047900000000000000000000000C07FC07F80011A
:1047A00000030006000C00180030C07FC07F00002E
:1047B00000000000800380070006000600060006D7
:1047C0000006000E001C001C000E0006000600067D
:1047D00000060006800780030006000600060006AB
:1047E0000006000600060006000600060006000699
:1047F0000006000600060006000600060038003C21
:10480000000C000C000C000C000C000E0007000750
:10481000000E000C000C000C000C000C003C0038DA
:1048200000000000000000000000000000008038D0
:10483000807F004700000000000000000000000032
:104840000000000000000000000000000000000068
:104850000000000000000000001000100010001018
:1048600000100010000000100000000000280028C8
:104870000028000000000000000000000000000010
:1048800000240024007C00240048007C00480048EC
:10489000000000000038005400500038001400549C
:1048A0000054003800100000002000540058003070
:1048B0000028005400140008000000000010002828
:1048C00000280010003400480048003400000000B8
:1048D00000100010001000000000000000000000A8
:1048E0000000000000080010002000200020002030
:1048F0000020002000100008002000100008000820
:10490000000800080008000800100020001000380F
:10491000001000280000000000000000000000005F
:104920000000000000100010007C001000100000CB
:104930000000000000000000000000000000000077
:104940000000001000100010000000000000000037
:10495000000000380000000000000000000000001F
:104960000000000000000000000000100000000037
:1049700000080008001000100010001000200020A7
:10498000000000000038004400440054004400448B
:1049900000440038000000000010003000500010FB
:1049A000001000100010001000000000003800444B
:1049B00000440004000800100020007C00000000FB
:1049C00000380044000400180004000400440038CB
:1049D0000000000000080018002800280048007CA3
:1049E0000008000800000000007C00400040007843
:1049F00000040004004400380000000000380044B7
:104A000000400078004400440044003800000000EA
:104A1000007C00040008001000100020002000208E
:104A20000000000000380044004400380044004406
:104A300000440038000000000038004400440044F6
:104A4000003C0004004400380000000000000000AA
:104A50000010000000000000000000100000000036
:104A60000000000000000010000000000000001026
:104A70000010001000000000000C0030004000306A
:104A8000000C000000000000000000000000007C9E
:104A90000000007C0000000000000000000000009A
:104AA0000060001800040018006000000000000012
:104AB000003800440004000800100010000000103E
:104AC0000000000000380044004C0054005C00402E
:104AD00000400038000000000010002800280028D6
:104AE0000028007C004400440000000000780044DE
:104AF00000440078004400440044007800000000B6
:104B000000380044004000400040004000440038AD
:104B100000000000007000480044004400440044CD
:104B20000048007000000000007C00400040007C55
:104B3000004000400040007C00000000007C00407D
:104B400000400078004000400040004000000000AD
:104B50000038004400400040005C0044004400383D
:104B600000000000004400440044007C0044004475
:104B70000044004400000000003800100010001045
:104B800000100010001000380000000000040004B5
:104B90000004000400040004004400380000000089
:104BA00000440048005000600050004800480044A5
:104BB0000000000000400040004000400040004075
:104BC0000040007C000000000044006C006C0054B9
:104BD000004400440044004400000000004400641D
:104BE000006400540054004C004C004400000000DD
:104BF00000380044004400440044004400440038AD
:104C000000000000007800440044004400780040A8
:104C10000040004000000000003800440044004410
:104C200000440044005400380004000000780044B0
:104C300000440044007800480048004400000000A0
:104C400000380044004000300008000400440038F0
:104C500000000000007C0010001000100010001088
:104C60000010001000000000004400440044004414
:104C700000440044004400380000000000440044A8
:104C80000044002800280028001000100000000048
:104C900000440044005400540054006C00280028D4
:104CA0000000000000440028002800100010002828
:104CB00000280044000000000044004400280028B0
:104CC000001000100010001000000000007C000424
:104CD00000080010001000200040007C00000000D0
:104CE000001800100010001000100010001000103C
:104CF000001000180020002000100010001000100C
:104D00000008000800000000003000100010001033
:104D100000100010001000100010003000100028DB
:104D20000028004400000000000000000000000017
:104D30000000000000000000000000000000000073
:104D4000000000FE00200010000000000000000035
:104D500000000000000000000000000000380044D7
:104D6000003C0044004C00340000000000400040C3
:104D70000058006400440044006400580000000033
:104D800000000000003800440040004000440038AB
:104D900000000000000400040034004C0044004403
:104DA000004C003400000000000000000038004407
:104DB000007C00400044003800000000000C00109F
:104DC000007C001000100010001000100000000017
:104DD000000000000034004C00440044004C00344B
:104DE0000004007800400040005800640044004483
:104DF000004400440000000000100000007000109B
:104E00000010001000100010000000000010000052
:104E1000007000100010001000100010001000E0E2
:104E2000004000400048005000600050004800442E
:104E300000000000007000100010001000100010B2
:104E40000010001000000000000000000078005476
:104E50000054005400540054000000000000000002
:104E60000058006400440044004400440000000076
:104E700000000000003800440044004400440038B2
:104E800000000000000000000058006400440044DE
:104E90000064005800400040000000000034004C56
:104EA00000440044004C00340004000400000000F2
:104EB0000058006400400040004000400000000036
:104EC00000000000003800440030000800440038B2
:104ED00000000000002000200078002000200020BA
:104EE0000020001800000000000000000044004402
:104EF00000440044004C00340000000000000000AA
:104F00000044004400280028002800100000000091
:104F100000000000005400540054006C00280028D9
:104F200000000000000000000044002800100010F5
:104F3000002800440000000000000000004400447D
:104F40000028002800100010001000600000000081
:104F5000007C0008001000200040007C00000000E1
:104F60000018001000100010002000200010001099
:104F700000100018001000100010001000100010A9
:104F80000010001000100010003000100010001081
:104F900000080008001000100010003000000000A1
:104FA00000000074004C0000000000000000000041
:104FB000F0B40246106895681318506803EB50046B
:104FC000C0071CD54D441AE013F8017B05F8017B9E
:104FD000491EF9D198B113F8011BC6F38106032EBF
:104FE00008BF13F8016B01EB06214942801C2944DC
:104FF00005D011F8016B05F8016B401EF9D1A342F1
:105000000ED013F8016B16F0030104BF13F8011B57
:10501000C91C30090F28DBD113F8010B0F30D7E77B
:10502000F0BC02F10C007047FEE7FEE7FEE7FEE78A
:10503000FEE770477047704700F020B80A48FCF759
:1050400088B90A48FCF785B90948FCF782B90948CC
:10505000FBF7CAB90748FBF7CFB94FF40050FCF78C
:105060006FBB0548FCF7F6BEB40E0020140F0020FD
:10507000740F00201C000020A40D002002490A68C3
:10508000886882180A6070476C00002001000000E8
:1050900009000000110000001900000021000000BC
:1050A000290000003100000039000000410000002C
:1050B000490000005100000059000000610000009C
:1050C00069000000710000000448054A016841F4CD
:1050D000700101604FF000601060704788ED00E0E3
:1050E00008ED00E0000000000000000001020304E1
:1050F0000607080910B5074979441831064C7C4465
:10510000163404E00A68081D114488470146A1428C
:10511000F8D110BD2C000000480000004EF6885168
:10512000CEF20001086840F470000860BFF34F8FB2
:10513000BFF36F8F4FF00070E1EE100A7047000070
:10514000FFBDFFFFDC07000000080020000000009A
:1051500061FEFFFF50020000D601000000000020A9
:105160000000FE3FFE3FFE3FFE3FFE3FFE3F0000D1
:10517000000000000000000000000000000000002F
:1051800000F00DF8002801D0FFF7B4FFAFF3008066
:105190000020AFF30080FCF7EFFA00F002F80120E6
:1051A000704700F001B800000746384600F002F8EA
:1051B000FBE7000080B5AFF30080024A1100182021
:1051C000ABBEFBE7260002000548014603B4684673
:1051D00080F30988AFF30080FFF7A0FFFFF7D0FF4F
:1051E000A5EDF5FE0148804701480047C950000879
:1051F000C9510008747970652027712700000000EC
:10520000746574726973203A7000000073636F7282
:105210006520697300000000000000000102030423
:105220005465747269730000746F20706C6179004A
:10523000FFF7FEBFFFF7FEBFFFF7FEBFFFF7FEBFA2
:10524000FFF7FEBFFFF7FEBFFFF7FEBFFFF7FEBF92
:10525000FFF7FEBFFFF7FEBFFFF7FEBFFFF7FEBF82
:10526000FFF7FEBFFFF7FEBFFFF7FEBFFFF7FEBF72
:10527000FFF7FEBFFFF7FEBFFFF7FEBFFFF7FEBF62
:10528000FFF7FEBFFFF7FEBFFFF7FEBFFFF7FEBF52
:10529000FFF7FEBFFFF7FEBFFFF7FEBFFFF7FEBF42
:1052A000FFF7FEBFFFF7FEBFFFF7FEBFFFF7FEBF32
:1052B000FFF7FEBFFFF7FEBFFFF7FEBFFFF7FEBF22
:1052C000FFF7FEBFFFF7FEBFFFF7FEBFFFF7FEBF12
:1052D000FFF7FEBFFFF7FEBFFFF7FEBFFFF7FEBF02
:1052E000FFF7FEBFFFF7FEBFFFF7FEBFFFF7FEBFF2
:1052F000FFF7FEBFFFF7FEBFFFF7FEBFFFF7FEBFE2
:10530000FFF7FEBFFFF7FEBFFFF7FEBFFFF7FEBFD1
:10531000FFF7FEBFFFF7FEBFFFF7FEBFFFF7FEBFC1
:10532000FFF7FEBFFFF7FEBFFFF7FEBFFFF7FEBFB1
:10533000FFF7FEBFFFF7FEBFFFF7FEBFFFF7FEBFA1
:10534000FFF7FEBFFFF7FEBFFFF7FEBFFFF7FEBF91
:10535000FFF7FEBFFFF7FEBFFFF7FEBFFFF7FEBF81
:10536000FFF7FEBFFFF7FEBFFFF7FEBFFFF7FEBF71
:10537000FFF7FEBFFFF7FEBFFFF7FEBFFFF7FEBF61
:10538000FFF7FEBFFFF7FEBFFFF7FEBFFFF7FEBF51
:10539000FFF7FEBFFFF7FEBFFFF7FEBFFFF7FEBF41
:1053A000FFF7FEBFF0183D08080000605100080735
:1053B0000A0000444800080B120000E83A00086E9A
:1053C00000015201505310000CF30424F4629201C6
:1053D0001683010004F11701E12CE140F11F4CF1AB
:1053E0001F40F103C0A101F113406124F13FFC21F2
:1053F00001F18B80F315010044F10B01A12CE13C7C
:10540000F11BFC6101F14F80F10370A101F10F105C
:10541000F10B01C3010004F10301F16F80A101F15F
:10542000036CF1173C2101E12CF11FBCF10770F175
:105430000B38F10B2CF11BBCA1016134F50F00F10D
:105440000FA8F11F80E170F11FBCF315010094F16A
:105450000B01E144F127C46101F18F4012641C1D6E
:105460001407200320205200082712460511094086
:105470000120F45110523710522820522810D20027
:0F54800030520C106101120E0DF20E02B821987D
:04000005080051C9D5
:00000001FF
