:020000040800F2
:10000000C01200200D450008E5430008E743000842
:10001000E9430008EB430008ED430008000000003E
:10002000000000000000000000000000EF43000896
:10003000F143000800000000F3430008F543000806
:1000400025450008294500082D45000831450008D0
:1000500035450008394500083D4500084145000880
:1000600045450008494500084D4500085145000830
:1000700055450008594500085D45000861450008E0
:1000800065450008694500086D4500087145000890
:1000900075450008794500087D4500088145000840
:1000A00085450008894500088D45000891450008F0
:1000B00095450008994500089D450008A1450008A0
:1000C000A5450008A9450008AD450008B145000850
:1000D000B545000835260008B9450008BD450008AB
:1000E000F9430008C1450008C5450008C945000896
:1000F000CD450008D1450008D5450008D945000880
:10010000DD450008E1450008E5450008E94500082F
:10011000ED450008F1450008F5450008F9450008DF
:10012000FD4500080146000805460008094600088C
:100130000D4600081146000815460008194600083B
:100140001D460008214600082546000829460008EB
:100150002D4600083146000835460008394600089B
:100160003D4600084146000845460008494600084B
:100170004D460008514600085546000859460008FB
:100180005D460008614600086546000869460008AB
:100190006D46000800000000714600087546000822
:1001A000794600087D4600088146000801440008A1
:1001B00085460008894600088D46000891460008DB
:1001C00095460008994600089D460008A14600088B
:1001D000A5460008A9460008000000000000000035
:1001E000000000000000000000000000000000000F
:1001F0000000000000000000000000000000000CF3
:10020000000C000C000C000C000C000C000C000C8E
:10021000000C000C0000000C000C000000000000AE
:100220000000001B001B001B001B001B0000000047
:1002300000000000000000000000000000000000BE
:100240000000000000008019801980198019C07F0B
:10025000C07F80190033C07FC07F0033003300337C
:1002600000330000000000000000001E003F807509
:1002700080650074003C001E000780058065806575
:100280008075003F001E00040004000000000070A4
:1002900000D840D8C0D880D900730006000C801B5D
:1002A000C036C066C046C0068003000000000000E3
:1002B0000000001E003F003300330033001E000C1E
:1002C000C03CC066806380618063C03E801C0000CB
:1002D000000000000000000C000C000C000C000CE2
:1002E000000000000000000000000000000000000E
:1002F0000000000000000000800000010003000674
:1003000000060004000C000C000C000C000C000C9B
:100310000004000600060003000180000020001019
:100320000018000C000C0004000600060006000681
:10033000000600060004000C000C0018001000204D
:100340000000000C002D003F001E003300000000E4
:10035000000000000000000000000000000000009D
:1003600000000000000000000000000C000C000C69
:10037000000CC0FFC0FF000C000C000C000C0000C3
:10038000000000000000000000000000000000006D
:10039000000000000000000000000000000000005D
:1003A0000000000C000C0004000400080000000025
:1003B0000000000000000000000000000000001E1F
:1003C000001E00000000000000000000000000000F
:1003D000000000000000000000000000000000001D
:1003E00000000000000000000000000C000C0000F5
:1003F00000000000000000030003000300060006E8
:1004000000060006000C000C000C000C0018001880
:1004100000180000000000000000001E003F003334
:10042000806180618061806D806D806180618061AC
:100430000033003F001E0000000000000000000626
:10044000000E001E0036002600060006000600060C
:10045000000600060006000600060000000000007E
:100460000000001E003F80738061806180010003F6
:100470000006000C001800300060807F807F0000C4
:10048000000000000000001C003E00630063000349
:10049000000E000E00038001800180618073003F28
:1004A000001E00000000000000000006000E000E0C
:1004B000001E001E0016003600360066807F807F1A
:1004C0000006000600060000000000000000007F9B
:1004D000007F006000600060006E007F806380012C
:1004E000800180618073003F001E0000000000005A
:1004F0000000001E003F803380610060006E007FBE
:1005000080738061806180618033003F001E000045
:10051000000000000000807F807F80010003000356
:1005200000060006000C000C000C00080018001863
:1005300000180000000000000000001E003F806363
:10054000806180610021001E003F806180618061C8
:100550008061003F001E0000000000000000001E3F
:10056000003F00738061806180618073803F801DE7
:10057000800180610073003F001E00000000000049
:1005800000000000000000000000000C000C000053
:1005900000000000000000000000000C000C000043
:1005A000000000000000000000000000000000004B
:1005B000000C000C00000000000000000000000C17
:1005C000000C00040004000800000000000000000F
:1005D00080008003000E003800600038000E8003A9
:1005E000800000000000000000000000000000008B
:1005F000000000000000807F807F00000000807FFE
:10060000807F0000000000000000000000000000EB
:10061000000000000000000000400070001C000707
:1006200080010007001C0070004000000000000076
:10063000000000000000001F803FC071C060C000CB
:10064000C00180030007000E000C000C0000000C2D
:10065000000C0000000000000000001E003F803180
:1006600080718063806F806D806D806F80670060B7
:100670000032003E001C0000000000000000000EE0
:10068000000E001B001B001B001B80318031803FCF
:10069000803F8031C060C060C0600000000000008A
:1006A0000000007C007E0063006300630063007E46
:1006B000007E0063806180618063007F007E0000B7
:1006C000000000000000001E003F803180610060DB
:1006D0000060006000600060006080618031003F69
:1006E000001E0000000000000000007C007F00638E
:1006F000806380618061806180618061806100636E
:100700000063007E007C0000000000000000807F8D
:10071000807F0060006000600060007F007F0060FC
:10072000006000600060807F807F000000000000AB
:100730000000807F807F0060006000600060007FBC
:10074000007F0060006000600060006000600000EA
:10075000000000000000001E003F8031806100604A
:100760000060006080638063806180618031803FD1
:10077000001E0000000000000000806180618061B8
:10078000806180618061807F807F80618061806125
:100790008061806180610000000000000000003F77
:1007A000003F000C000C000C000C000C000C000CB6
:1007B000000C000C000C003F003F00000000000097
:1007C00000008001800180018001800180018001A2
:1007D00080018001806180618073003F001E000005
:1007E000000000000000C0608061006300660066D9
:1007F000006C0078007C00660066006380618061A8
:10080000C0600000000000000000006000600060A8
:1008100000600060006000600060006000600060D8
:100820000060807F807F0000000000000000C07139
:10083000C071C07BC07AC06AC06AC06EC064C0604C
:10084000C060C060C060C060C06000000000000008
:10085000000080718071807980798079806D806DF1
:10086000806D80658067806780678063806300003B
:10087000000000000000001E003F00338061806126
:100880008061806180618061806180610033003FB0
:10089000001E0000000000000000007E007F80635A
:1008A0008061806180618063007F007E0060006005
:1008B0000060006000600000000000000000001EFA
:1008C000003F003380618061806180618061806170
:1008D000806580670033803F401E000000000000FC
:1008E0000000007E007F8063806180618063007F04
:1008F000007E00660063006380618061C06000006C
:10090000000000000000000E001F80318031003028
:100910000038001E00078003806180618031003F45
:10092000001E0000000000000000C0FFC0FF000C1F
:10093000000C000C000C000C000C000C000C000C57
:10094000000C000C000C00000000000000008061A2
:10095000806180618061806180618061806180618F
:10096000806180618073003F001E00000000000075
:100970000000C060C060C060803180318031001BE9
:10098000001B001B001B000E000E000E00040000E8
:10099000000000000000C0C0C0C0C0C0C0C0C0C0D7
:1009A000C0CC804C804C805E8052805280738061CD
:1009B00080610000000000000000C0C08060806115
:1009C0000033003B001E000C000C001E001F003B0B
:1009D00080718061C0C00000000000000000C0C045
:1009E0008061806100330033001E001E000C000C8B
:1009F000000C000C000C000C000C000000000000BB
:100A00000000803F803F8001000300030006000CCF
:100A1000000C0018001800300060807F807F00000C
:100A200000000000000F000F000C000C000C000C78
:100A3000000C000C000C000C000C000C000C000C56
:100A4000000C000C000F000F000000180018001828
:100A5000000C000C000C000C00060006000600064E
:100A6000000300030003000000000000001E001E41
:100A70000006000600060006000600060006000646
:100A8000000600060006000600060006001E001E06
:100A90000000000C000C001E0012003300338061C7
:100AA0008061000000000000000000000000000065
:100AB0000000000000000000000000000000000036
:100AC0000000000000000000000000000000000026
:100AD00000000000E0FF0000000000380018000CDB
:100AE0000000000000000000000000000000000006
:100AF00000000000000000000000000000000000F6
:100B0000000000000000001F803F80618001801F06
:100B1000803F80618063807FC0380000000000005B
:100B200000000060006000600060006E007F807365
:100B300080618061806180618073007F006E000051
:100B40000000000000000000000000000000001E87
:100B5000003F807380610060006080618073003FAF
:100B6000001E0000000000000000800180018001E4
:100B70008001801D803F8073806180618061806121
:100B80008073803F801D0000000000000000000016
:100B9000000000000000001E003F00738061807FA5
:100BA000807F00608071003F001E00000000000098
:100BB0000000C007C00F000C000C807F807F000C7D
:100BC000000C000C000C000C000C000C000C0000D1
:100BD000000000000000000000000000801D803FB9
:100BE000807380618061806180618073803F801D3F
:100BF00080018063007F003E0000006000600060B4
:100C00000060006F807F80718061806180618061A1
:100C1000806180618061000000000000000000062B
:100C2000000600000000003E003E00060006000630
:100C30000006000600060006000600000000000096
:100C40000006000600000000003E003E0006000610
:100C50000006000600060006000600060006004624
:100C6000007E003C00000060006000600060806169
:100C700000630066006C007C0076006300638061A6
:100C8000C0600000000000000000003E003E0006C2
:100C90000006000600060006000600060006000624
:100CA0000006000600060000000000000000000032
:100CB00000000000000080DDC0FFC0CEC0CCC0CC72
:100CC000C0CCC0CCC0CCC0CCC0CC00000000000068
:100CD00000000000000000000000006F807F8071B5
:100CE00080618061806180618061806180610000DD
:100CF0000000000000000000000000000000001ED6
:100D0000003F807380618061806180618073003FFB
:100D1000001E0000000000000000000000000000B5
:100D2000006E007F8073806180618061806180736C
:100D3000007F006E00600060006000600000000046
:100D400000000000801D803F8073806180618061B1
:100D500080618073803F801D80018001800180015F
:100D6000000000000000000000000067803F003924
:100D70000030003000300030003000300030000023
:100D80000000000000000000000000000000001E45
:100D9000803F80610060007F803F80018061007F34
:100DA000001E000000000000000000000008001805
:100DB0000018007F007F00180018001800180018A5
:100DC0000018801F800F00000000000000000000DD
:100DD00000000000000080618061806180618061AE
:100DE000806180618063807F803D000000000000A2
:100DF00000000000000000000000C0608031803171
:100E00008031001B001B001B000E000E00060000BE
:100E1000000000000000000000000000000080DD75
:100E200080DD80DD005500550055007700770022F9
:100E30000022000000000000000000000000000090
:100E40000000806100330033001E000C000C001E07
:100E5000003300338061000000000000000000004B
:100E60000000000080618061803100330033001B8E
:100E7000001B001B000E000E000E001C007C00700A
:100E800000000000000000000000C07FC07F800163
:100E900000030006000C00180030C07FC07F000077
:100EA0000000000080038007000600060006000620
:100EB0000006000E001C001C000E000600060006C6
:100EC00000060006800780030006000600060006F4
:100ED00000060006000600060006000600060006E2
:100EE0000006000600060006000600060038003C6A
:100EF000000C000C000C000C000C000E000700079A
:100F0000000E000C000C000C000C000C003C003823
:100F10000000000000000000000000000000803819
:100F2000807F00470000000000000000000000007B
:100F30000000000038B5040009D004F17C056968A0
:100F400009B900F01EF800F021F8012801D10120B4
:100F500032BDA06A08B100F02AF800F00AF821F0CA
:100F60002A01FFE7816000F01BF8BDE8324000F085
:100F700092BB2068416821F49041416020688168FB
:100F8000704700202870204600F067BD242169606A
:100F900020680268520852000260204600F0C8B97A
:100FA0002068016841F00101016020467047204639
:100FB00000F00EBB2DE9FC47054605F17C04884690
:100FC00060682028174699464DD1B8F1000F14BF2C
:100FD000002F012048D02078012844D00121217021
:100FE0000020E0602122626005F1540600F076FDE9
:100FF000378082467780A868B0F5805F04BF286993
:1010000000280EBF47464046002700212170804639
:101010000FE018F8012B826208E02868B8F1000F91
:10102000F7D137F8021BC1F3080181627088411EB5
:10103000718053467088CDF80090002807D00022B8
:101040008021284600F054FB0028E6D005E000226D
:101050004021284600F04CFB08B1032004E020208A
:101060006060002000E00220BDE8F68730B500F1A6
:101070007C039C68202C6BD109B1140001D10120A4
:1010800030BD1C78012C63D001251D7000F15C047B
:1010900081652280628000212161FF258168B1F590
:1010A000805F04D1016991B940F2FF150FE019B9D1
:1010B000016961B17F2107E0B1F1805F06D101696B
:1010C00009B97F2503E03F21A18001E00025A5802B
:1010D0000021D96022259D6001688D6845F00105D9
:1010E0008D60A168B1F1005F1CD1A1898A4219D33A
:1010F0008268B2F5805F04BF0169002907BFDFF88D
:10110000C0242261DFF8BC14216100221A7001683A
:101110000B6843F480730B600068816841F0805174
:10112000816013E08168B1F5805F04BF0169002927
:1011300007BFDFF894242261DFF8901421610022B8
:101140001A700068016841F490710160002030BDA0
:10115000022030BD206881684A067047F8B5044611
:1011600040F60F022368DD691F689E682A4007F079
:10117000200005F020010CD1002912D010B9F00098
:1011800040F19380E16E00295BD02046BDE8F44039
:101190000847DFF8B027164204BFDFF8ACC717EAEC
:1011A0000C0F00F082805FEAC57C48BF5FEAC75E33
:1011B00009D54FF0010CC3F820C0D4F8883043F0B3
:1011C0000103C4F88830AB070CD5F3070AD5D4F86F
:1011D00000E00223CEF82030D4F8883043F0040336
:1011E000C4F888306B070CD5F3070AD5D4F800E0B3
:1011F0000423CEF82030D4F8883043F00203C4F83A
:1012000088302B070CD5002808BF164208D0236869
:1012100008221A62D4F8882042F00802C4F8882014
:101220002A050BD57B0109D525684FF400622A6297
:10123000D4F8882042F02002C4F88820D4F888200E
:10124000002A6ED031B108B9F00003D5E16E09B1C2
:1012500020468847D4F8880021688A68510602D45D
:1012600010F0280F1AD0204600F085FAFFF772FF21
:101270000FD500F057F860B10FF221518163A06FD4
:1012800000F032FC00284CD0A06F816BBDE8F44028
:1012900008472046BDE8F24000F05FBC204600F061
:1012A0005CFC0020C4F88800F1BDE80209D5710299
:1012B00007D54FF4801018622046BDE8F24000F0D8
:1012C000D5BC280609D5390601D4300205D5216FD1
:1012D00039B32046BDE8F440084768060FD57906C3
:1012E0000DD51A6822F040021A602020C4F8800050
:1012F000002222672046BDE8F24000F0B8BC280278
:1013000006D5790004D52046BDE8F24000F0B0BC17
:10131000E80148BF002F04D52046BDE8F24000F0A8
:10132000A8BCF1BD816821F040018160A06F7047C9
:10133000F8B50446DFF818162268DFF818E61368D7
:10134000A068DFF814760B402169034360690B4302
:10135000E1690343606E0B4303431360002551684A
:10136000E06821F4405101435160A369DFF8DC15C6
:101370008A421CBF206A03439668DFF8E0050640F6
:10138000334393600FF2FC56D36A606A1B0940EA4C
:101390000313D3627245DFF8C8054FF400433FD111
:1013A0003F6807F00307032F48D8DFE807F0028AF9
:1013B000799E4FF0010CE169B1F5004F4FF6F077DF
:1013C00040F0C680BCF1000F0FD0BCF1010F00F05F
:1013D000B780BCF1020F0CD0BCF1040F00F0B38059
:1013E000BCF1080F00F0B280DFE000F029FF002818
:1013F00015D0626A616836F81230B0FBF3F04A0823
:1014000002EB4002B2FBF1F080B2A0F11001B94250
:10141000EAD20740C0F3420007432068C760C5E036
:10142000DFF840C562452CD13F6817F00C076ED03D
:10143000042F46D0082F33D00C2F56D04FF0100C6D
:101440008A42B8D1BCF1000F09D0BCF1020F0AD01A
:10145000BCF1040F5DD0BCF1080F5DD0A5E000F039
:10146000EFFE0028DBD0616A36F81120B0FBF2F6FF
:10147000626802EB42018E4202D31303B3424DD2A3
:1014800093E0DFF8E4C462450DD13F6817F0300700
:101490003DD0102F15D0202F02D0302F25D0CDE7F2
:1014A0004FF0020CCCE7DFF8C4C462450CD13F68B2
:1014B00017F0C0072BD0402F03D0802FF0D0C02FC3
:1014C000ECE74FF0040CBBE7DFF8A4C462450FD192
:1014D0003F6817F440771AD0B7F5807FF1D0B7F5A1
:1014E000007FDDD0B7F5407FA8D14FF0080CA7E70B
:1014F0008A42A3D13F6817F4406708D0B7F5806FE0
:10150000DFD0B7F5006FCBD0B7F5406FC6E7AC467C
:1015100096E700F066FEA4E71846A4E7500800210D
:1015200010EB062051EB1661002300F0B9FEA0F588
:101530004076DFF84074BE4237D22168C86035E09B
:1015400000F086FE53E700F04CFE50E7184650E7E7
:10155000BCF1000F0CD0BCF1010F1ED0BCF1020F8A
:1015600009D0BCF1040F1BD0BCF1080F1BD01CE04C
:1015700000F066FED0B1626A36F812306168B0FBE6
:10158000F3F000EB5100B0FBF1F080B2A0F11001DC
:10159000B9420AD22268D06008E000F059FEE9E7BB
:1015A00000F01FFEE6E71846E5E7012504F16800B4
:1015B0000121002341800180436083602846F2BD01
:1015C000931800083F180008D1170008AD1700084D
:1015D00090F82810CA0706D502685368C16A23F438
:1015E00000330B43536090F828108A0706D5026831
:1015F0005368016B23F480330B43536090F8281039
:101600004A0706D502685368416B23F480230B43D5
:10161000536090F828100A0706D502685368816B5A
:1016200023F400430B43536090F82810CA0606D5F4
:1016300002689368C16B23F480530B43936090F866
:1016400028108A0606D502689368016C23F40053BB
:101650000B43936090F828104A0610D5026853682F
:10166000416C23F480130B435360436CB3F5801F2C
:1016700005D15368816C23F4C0030B43536090F889
:1016800028100A0606D501684A68C06C22F40022B8
:1016900002434A607047F8B5044604F17C05002017
:1016A000E8606FF07E4700F019FA0646206801688E
:1016B0000A0708D50097334600224FF40011204650
:1016C00000F016F860B9206801684A070AD500974B
:1016D000334600224FF48001204600F009F808B19B
:1016E0000320F2BD20206860A86000202870F2BDB1
:1016F0002DE9F041069C05460E4690461F46286897
:10170000C1693140B1420CBF01200020404520D1C9
:1017100014F1010FF3D000F0E1F9C01B844200D3B3
:1017200034B900F018F8002101700320BDE8F08101
:10173000286801684A07E2D5C1690805DFD54FF47A
:1017400000612A681162002200F005F8C160027091
:10175000EBE70020EAE72868016821F4D071016016
:101760002868816849084900816005F17C002021D2
:1017700041608160704701680A6822F490720A60D3
:101780000549026893680B4093602022C0F88420CA
:101790000021C16670470000FEFFFFEF806A00F184
:1017A000560100220A810A8000F0D7B970B500F016
:1017B00027F808D100F02AF82B70816D4B1C00F03F
:1017C00019F821B929E0886940F00800886170BDE6
:1017D00070B500F015F808D100F018F82B80816D75
:1017E0008B1C00F007F821B917E0886940F0080069
:1017F000886170BD836525886E1E268021887047AC
:1018000000F16C0201689369222B70474B6A856D69
:1018100000F15E0461880B40704701680B6823F497
:1018200090730B6001688B685B085B008B60202104
:10183000916100231360BDE8704000F0FFBE2DE908
:10184000F04100F050F81AD167890AE000F062F820
:101850000870B06D421C00F040F808B900F060F864
:101860007F1EB8B20028F1D1208850B1618988422A
:1018700007DA00F049F8404800F03FF801E000F0D6
:1018800002F8BDE8F0813068816941F008018161AA
:1018900070472DE9F04100F026F81AD167890AE077
:1018A00000F038F80880B06D821C00F016F808B916
:1018B00000F036F87F1EB8B20028F1D1208850B170
:1018C0006189884207DA00F01FF82C4800F015F80B
:1018D00001E0FFF7D8FFBDE8F081B26521884B1E1B
:1018E000238020887047064606F15E0406F16C05E9
:1018F000B4F80280A869222870472860306801681F
:1019000041F02001016070473068816821F080510A
:10191000816070473068406AB16D08EA0000704726
:101920003068174A016821F4807101602023306813
:10193000816811408160AB6100202860304600F072
:101940007DBE000001000010200100040080004066
:10195000F369FFCF0038014088100240FFF4FF1107
:101960000024F4000044004000480040004C0040C7
:101970000050004000FD0F00AD170008D11700080F
:10198000FEFFFFEF010002000400060008000A004D
:101990000C00100020004000800000014A4882B086
:1019A000816841F001018160816801F001010091CD
:1019B0000099026842F080520260006800F0805096
:1019C0000090009802B001F028B910B586B0044626
:1019D00014220021684601F031F921683B48814218
:1019E00039D13B4C216841F001012160206800F0B1
:1019F000010005900598216841F0020121604FF433
:101A00000041226802F0020205921222059800911C
:101A1000019201210291002204210491039269465E
:101A20004FF0904001F014F912210191012202922D
:101A300080200021009003910422049269462548E9
:101A400001F006F9E06840F40010E060E06800F49E
:101A500000100090009806B010BD10B586B0044686
:101A60001422002101A801F0E9F821681A488142F6
:101A700028D11748016941F001010161016901F0B4
:101A8000010100910099026842F0010202600C21FC
:101A9000006800F00100009002220098019102927B
:101AA0000021039104914FF090400C21059101A970
:101AB00001F0CEF8002200215B2001F0CFF95B207D
:101AC00001F0EAF906B010BD581002400054004081
:101AD0004C100240000400480080004001480068AB
:101AE000704700BF9407002038B500F1240200249D
:101AF0005178022906D004209061012151701470A0
:101B0000012428E001680B6823F00E030B600168D4
:101B10000D686D086D000D60516A0B6823F48073C9
:101B20000B60012192F82030D56903F01F03994022
:101B30006960936AD16A5960116B31B10B6823F403
:101B400080730B60516B936B4B6001235370147067
:101B5000516901B18847204632BD704710B500F188
:101B60007C010A78012A01D1022010BD01220A70ED
:101B700024234B60026813681468640864001460CE
:101B80000022426623F000530068036020224A606E
:101B900000230B70002010BD70B500F01FF801D1BC
:101BA000022070BD00F020F822F0604209E070B51C
:101BB00000F014F801D1022070BD00F015F822F0F9
:101BC000606211438160204600F01CF820680660C6
:101BD0002021696000222A70002070BD044604F1B3
:101BE0007C052878012870470120287024226A602B
:101BF0002068066802685208520002602068826805
:101C000070470000FFB500BF14A200BF15A6D2E9BF
:101C1000003402A9C1E90034D6E90071CDE90071B0
:101C2000416E11B90121012213E001688A688968B7
:101C3000520E02F00702490F02AC655CA45C1DF86D
:101C400001101DF80220ED00E40095FBF1F194FB7A
:101C5000F2F2683041800280FFBD00000101010303
:101C600007010000080402040801010170477047E1
:101C7000704770472DE9F84304006DD02078DFF8F5
:101C8000E865C10717D500F0D0F90CD101F00301C8
:101C900003290AD06068B0F5803F2AD1306840F44B
:101CA0008030306037E00828F4D13068810302D5F5
:101CB0006068002850D02178880759D500F0B5F920
:101CC00043D101F00301022941D0E06800286AD025
:101CD000316841F480713160FFF700FF05463068DC
:101CE00041055DD4FFF7FAFE401B0328F7D303201C
:101CF00091E1B0F5A02F306806D140F4802030602B
:101D0000316841F4803105E020F480303060316882
:101D100021F480213160606858B1FFF7DFFE05468D
:101D200030688103C7D4FFF7D9FE401B6528F7D37D
:101D3000DDE7FFF7D3FE054630688103BBD5FFF72B
:101D4000CDFE401B6528F7D3D1E70428BDD130680C
:101D5000410503D5E068002800F05A8100F05DF9E4
:101D6000DFF81005006801F0C3F8002840F050814A
:101D70002078DFF80475010734D560690028786899
:101D800021D040F001007860FFF7A8FE0546786892
:101D9000810727D4FFF7A2FE401B0328F7D3A6E74D
:101DA00000F03BF9E4E7306820F480703060FFF722
:101DB00095FE054630684105DAD5FFF78FFE401BDA
:101DC0000328F7D393E7400840007860FFF786FECA
:101DD00005467868810705D5FFF780FE401B03287C
:101DE000F7D384E72078410763D5B06D0025C100A3
:101DF00009D4B06D40F08050B0650125B06D00F0A1
:101E0000805000900098DFF87484D8F80000C10575
:101E100013D4D8F8000040F48070C8F80000FFF731
:101E20005DFE8146D8F80000C10506D4FFF756FED6
:101E3000A0EB09000328F5D359E7A068012804D1D5
:101E4000386840F00100386010E00528386806D195
:101E500040F004003860396841F0010105E04008B5
:101E600040003860396821F004013960A06841F20F
:101E7000893860B1FFF732FE81463868810713D494
:101E8000FFF72CFEA0EB09004045F6D32FE7FFF744
:101E900025FE81463868810706D5FFF71FFEA0EBB7
:101EA00009004045F6D322E71DB1B06D20F0805007
:101EB000B0652078810621D5A0690028B8680ED0C9
:101EC00040F00100B860FFF709FE0546B8688107D9
:101ED00014D4FFF703FE401B0328F7D307E740089D
:101EE0004000B860FFF7FAFD0546B868810705D5E0
:101EF000FFF7F4FD401B0328F7D3F8E6E06900285C
:101F000000F08880B16801F00C010C2955D002283E
:101F1000306820F0807030603AD1FFF7DFFD054671
:101F20003068810105D5FFF7D9FD401B0328F7D3A1
:101F3000DDE6F068DFF84813226A0840616A104362
:101F4000491E40EA0110226BA16A520840EA0120B2
:101F5000616B521E490840EA4250491E40EA416006
:101F6000E16A40EAC160F060306840F08070306043
:101F7000F16841F08071F160FFF7B0FD0446306810
:101F8000810147D4FFF7AAFD001B0328F7D3AEE673
:101F9000F168DFF8F00289088900F160F16801401A
:101FA000F160FFF79BFD04463068810132D5FFF7F1
:101FB00095FD001B0328F7D399E6012828D0F06887
:101FC000226A00F00301914201BF00F0F001626A51
:101FD000521EB1EB021F1BD1A26A00F4FE41B1EB0D
:101FE000022F02BF00F07841E26AB1EBC26F0FD15D
:101FF000226B520800F4C001521EB1EB425F07D1C0
:10200000616B490800F0C060491EB0EB416F01D020
:10201000012000E00020BDE8F2837068216920F013
:10202000FE4040EA016070607047B068F16800F0FF
:102030000C000C2870472DE9F04704460027002CBF
:10204000894668D0DFF8406200F0C6F804D200F09C
:10205000BDF800F0C1F85ED12078DFF80C52C1075E
:1020600041F2893859D56068DFF820A2032828D1C9
:10207000286881014FD5E968E868C0F30310401C67
:1020800001F0030103290CBFDFF80412DFF8E011AF
:10209000B1FBF0F1E868C0F306204143E868C0F303
:1020A0004160401C4000B1FBF0F0504519D3A968D5
:1020B00011F0F00F0ED02078810712D5A06880B9FA
:1020C00008E00228286824D1810324D500F089F88B
:1020D000504506D3A86820F0F00040F08000A860CA
:1020E0008027A9686068890840EA8101A960FFF734
:1020F000F5FC8246A868616800F00C00B0EB810F27
:102100000BD0FFF7EBFCA0EB0A004045F2D3032015
:102110005AE04105DAD4012056E02068810715D540
:10212000400703D5A96841F4E061A9602078010760
:1021300005D5A86820F4605040F4E060A860A96864
:10214000A06821F0F0010143A96005E0802F03D1D0
:10215000A86820F0F000A860306800F00F0081450A
:102160000DD200F033F8FFF7B9FC074600F034F861
:1021700005D0FFF7B3FCC01B4045F7D3C7E7207875
:10218000410705D5AA68E06822F4E0620243AA602C
:102190002178080706D5A968206921F4605141EA31
:1021A000C001A96000F01DF8AA683A49C2F3031201
:1021B000895C2E4A01F01F01C8401060BDE8F0475D
:1021C0002C48006800F094BEBDE8F087316809092A
:1021D00049EA011131607047306800F00F0048454E
:1021E00070472D49086800F00C00042801D12048F0
:1021F0007047086800F00C00082801D12448704797
:10220000086800F00C000C2818D14A684868C0F330
:102210000310401C02F00302032A0CBF1C4A144A9C
:10222000B2FBF0F24868C0F3062042434868C0F3AE
:102230004160401C4000B2FBF0F070470020704746
:102240000A48154A006813681449C3F3022206E0DD
:102250000648114A006813681049C3F3C222895C1A
:1022600001F01F01C840704700100240A007002085
:102270000024F400980700209010024000700040F5
:102280000C809F01FFFFEEFE0020024001B4C40459
:1022900000366E01D4430008081002401C450008B7
:1022A000D3BBD9B1B2F5803F5BD2022A1ED98C468E
:1022B000B1FBF2F102FB11C31B0443EA1043B3FB71
:1022C000F2FC02FB1C3380B240EA0343B3FBF2F0A2
:1022D00002FB103240EA0C4000237047022A05D965
:1022E0008446B0FBF2F002FB10C270474AB105D140
:1022F00000F0010249085FEA300070470022002325
:10230000704700F017BE0B0002000021002070474C
:10231000F7D3002200237047904271EB030CF2D3F5
:1023200070B5B1FA81F4B3FA83F52C1BA340C4F164
:10233000200532FA05F63343A2405FF00046E6403E
:1023400002E05B085FEA3202841A71EB030524BFE6
:10235000204629467641F4D302000B0030000021CC
:1023600070BD70B5B1FA81F4B2FA82F5C4F12004FF
:102370006419B4F12006DAD3B2405FF00044F440AF
:10238000002502E052085FEA3303C61A71EB020E21
:1023900024BF3046714664416D41F3D302000B0007
:1023A0002000290070BD30B4002513E050F8042B44
:1023B000D30744BFA9F101039A18091F042942F861
:1023C000045BFAD213468C0744BF15809B1CC907D7
:1023D00048BF1D7050F8041B0029E7D130BC70477E
:1023E00038B586B000F0A8FD00F0DFF8142101A890
:1023F00000F0B2FDDFF80807DFF80847016841F098
:1024000004010160026802F004020092009902686F
:1024100042F020020260036803F020030093009959
:10242000026842F001020260036803F001030093B6
:102430000099026842F0020202600022006800F087
:1024400002000090202100984FF0904000F0CBFC5B
:102450004FF40050DFF8B016019002910022039271
:1024600001A9DFF8A80600F0F3FB20210191012269
:10247000002103910491029201A94FF0904000F0D5
:10248000E7FB00220021282000F0E8FC282000F0D3
:1024900003FDDFF87C0620604FF4E1310C200022C0
:1024A00060616160A260E2602261A2612262626298
:1024B000A2622046FEF73EFD08B100F043FB00217A
:1024C0002046FFF769FB08B100F03CFB00212046E5
:1024D000FFF76DFB08B100F035FB2046FFF73EFB30
:1024E00008B100F02FFBDFF82C56DFF82C06DFF8E0
:1024F0002C16286000220120E8606960AA602A6129
:102500006A61AA61EA612A62284600F029FD08B1E1
:1025100000F018FB0021284600F02EFF08B100F063
:1025200011FB0021284600F03CFF08B100F00AFB37
:10253000DFF8EC55012229462046FEF797FD684654
:102540000FF20461102200F057FF4FF47A7310224B
:1025500069462046FEF72EFD002000F059FF00F0EE
:102560009EFF00F0BCFF00F094F911E001F018F8B4
:1025700000F028F900F090F900F0BDF900F0F3F94F
:1025800000F024FA00F05BFA0128EFD100F070FAB5
:1025900000F0C2F80120A867A86F0028FCD10A202B
:1025A00001F060F900F0ABF8E2E780B5A8B038219F
:1025B00005A800F0D1FC1421684600F0CDFC5421A0
:1025C00013A800F0C9FC002000F0E0FA4FF480727C
:1025D00008920221022205910C920D9240210422C0
:1025E00009910E92552102220F911092119212928E
:1025F00005A8FFF73FFB08B100F0A4FA0F20032164
:1026000000900191002202920392049204216846F4
:10261000FFF711FD08B172B6FEE7602013900021AC
:1026200019911A9113A801F031F908B172B6FEE7B9
:1026300029B000BDDFF8CC04FEF790BD0068DFF8DC
:10264000D014884200D07047F8B5DFF8D454DFF8D2
:10265000B464287868700A230122691C3046FEF7AA
:10266000A9FC69782F6F712902D10020A8670CE0BE
:102670003C46E86E642908BF7F1C02D0612906D160
:10268000671E394600F044F988BB3C462FE07729A5
:102690002DD1AA68042C07DA521C501002EB90715D
:1026A0008910A2EB810221E000230027501C411079
:1026B00000EB91714FEAA10CA0EB8C01D5F804C09E
:1026C000DFF8600400EB0C2000EB031000EB81103E
:1026D00050F82700012803D138190828D8BF0A4626
:1026E0007F1C042FE2DB5B1C042BDEDBAA602C6763
:1026F00029463046BDE8F8400122FEF7B7BC80B558
:1027000000F088FE072190FBF1F1C1EBC101DFF879
:102710001024401A506001BD38B58AB000F0B9F8F5
:10272000642100F00CFA0FF23041DFF8FC53D1E9DC
:102730000023CDE9002300241DF8040001222946CE
:1027400000F0C7FF641C052CF6D900F0F7F90FF272
:102750001041DFF8D843D1E9002302A80025C0E9E1
:10276000002302A800F029F86D1C052DF9D33721AC
:1027700000F0E5F90FF2F03191E82C0004A880E8B0
:102780002C00002504A800F018F86D1C082DF9D3C2
:10279000282100F0D4F90FF2DC3191E82C0007A8D1
:1027A00080E82C00002507A800F007F86D1C082D14
:1027B000F9D300F0F5FE0BB030BD0122405D21469B
:1027C00000F087BF2DE9FC4100F063F87E21252051
:1027D00000F039FFDFF84843DFF85073656F0A20D7
:1027E00095FBF0F6642395FBF3F030300122394677
:1027F000C0B24FF00A0800F06CFF0A2096FBF0F020
:1028000008FB1060303001223946C0B200F061FF91
:1028100008FB1655303501223946E8B200F059FF61
:10282000012000903D2380223D2100F02FF801205F
:1028300000900323802200F028F8012000903D231F
:10284000002200F022F80026B94D00271C21B948CB
:102850007143014451F82720012A0ED104EB87006F
:1028600004EB8602016D106989B280B200F0EBFEC4
:1028700001222946002000F0EBFE7F1C072FE5DB3C
:10288000761C0F2EE1DBBDE8F3810321002000F070
:102890005ABF002000F0A6BE2DE9F0410027A44C4D
:1028A0009F4DDFF880820026A96808EB071000EB37
:1028B0008112686802EB002151F82620012A12D10A
:1028C000286F301805EB8002116DEA6ED21B05EB04
:1028D000820389B2186980B200F0B5FE0122214658
:1028E000002000F0B5FE761C042EDDDB7F1C042FDB
:1028F000D9DBBDE8F0818A48C168491CC160C16864
:10290000042904D1C16E491EC1660022C26070470D
:10291000F0B50024824A0025031B5768814E06EB60
:10292000072C96680CEB861707EB041757F8256001
:10293000012E0ED1002B14D46E18072E11D24FF099
:102940001C0C7C4F0CFB03FC674457F82660012EDF
:1029500007D06D1C042DE0DB641C042CDBDB0020A5
:10296000F0BD0120F0BDF8B56D4CE56E266F314627
:10297000681EFFF7CDFF012827D1002000216368E2
:10298000684A02EB0327A26807EB821303EB0017E8
:1029900057F82120012A09D12F1A1C22654B5743D1
:1029A000DA1901EB060C012342F82C30491C0429EA
:1029B000E5DB401C0428E1DB0E20E066022100205C
:1029C000A0602167BDE8F14099E6F1BD2DE9F0472F
:1029D00001240E26524DDFF85C914FF01C0808FBD5
:1029E00006F000210022484450F82230012B08BF95
:1029F000491C521C072AF7DB07291CD11C2101F0B6
:102A00008BF837460FE008FB07F009EB000A1C22A1
:102A10000AF11C01504600F0EFFC1C210AF11C00D9
:102A200001F07AF87F1C0E2FEDDB696F0A2000FBA6
:102A300004116967641C761ED1D5BDE8F08710B516
:102A40003D488168491C072981600ED13449CA6E0E
:102A5000096F43688B4204BF0468944201D101208E
:102A600010BD4160026000218160002010BD0000A7
:102A7000FEB540F2DC5000F0F5FEFFF70AFF00F073
:102A80005DF800BF3EA191E81C006846002580E883
:102A90001C00264C1DF805000122214600F019FEFD
:102AA0006D1C082DF6D3372100F049F81C48456FFE
:102AB00064200A2195FBF0F095FBF1F630300122FD
:102AC0002146C0B20A2700F004FE0A2096FBF0F06F
:102AD00007FB1060303001222146C0B200F0F9FD42
:102AE00007FB1655303501222146E8B200F0F1FD12
:102AF00000F056FD40F6B83000F0B4FEF7BD00001F
:102B00004C100240500D0020000011100008004839
:102B100000800040600E002000540040FBA7A03061
:102B200018070020180000201000002008000020D6
:102B300000000020AC0B0020AC0E0020462100203D
:102B400000F081BD72B6FEE775706C6F6164652040
:102B5000636865636B0A0D005465747269730000E5
:102B60005072657373000000746865207377636842
:102B700000000000746F2073746172740000000024
:102B800073636F72652069730000000010B5322214
:102B9000DFF89C30DFF89440DFF88C1048B900F083
:102BA0001EF820F48070206017D100F01FF80CD4BC
:102BB00013E0B0F5007F0AD100F011F840F4807006
:102BC00020600AD100F012F807D5032010BD0A6872
:102BD00022F4C06242F480620A60002010BD0868DE
:102BE00000F4C060B0F5806F206870470C6824F472
:102BF000C06444F400740C601868DFF83830424355
:102C0000B2FBF3F0401C00E0401E4A69530501D5B9
:102C10000028F9D14869410570470748016841F427
:102C200080410160704700000070004080700040EB
:102C3000A007002040420F000870004010B5044675
:102C400010460A460146204600F06AFF204610BDA5
:102C50002DE9F84F00276A4A6A4B4FF00F080546E6
:102C60000E4634E0684CA54214BF062405248C406F
:102C7000664944EA0E0441F82C40C143146801EA55
:102C8000040C7468E40348BF40EA0C0CC2F800C0AE
:102C9000546801EA040C7468A40348BF40EA0C0CB1
:102CA000C2F804C0946801EA040C7468E40248BFE6
:102CB00040EA0C0CC2F808C0D46801EA040C716840
:102CC000890248BF40EA0C0CC2F80CC07F1C316876
:102CD00031FA07F000F085800124BC4014EA0100BD
:102CE000F4D04FEA470C032101FA0CF16FEA010E10
:102CF0007168012918BF022903D0112918BF1229B0
:102D000012D1A968D6F80C900EEA010109FA0CF963
:102D100049EA0101A960696821EA04047168C1F304
:102D20000011B9400C436C60E968B4680EEA010117
:102D300004FA0CF42143E960B9007468022C18BF4E
:102D4000122C12D1FC0805EB840401F01C09D4F804
:102D500020A008FA09FB2AEA0B0AD6F810B00BFAF1
:102D600009F949EA0A09C4F820902C680EEA040E11
:102D7000347904F0030404FA0CF444EA0E042C60E1
:102D80007468E400A2D51C6844F001041C604FEA9A
:102D9000970C1C6804F00104009401F00C01009CE5
:102DA0001A4C54F82C4008FA01FE24EA0E0EB5F134
:102DB000904F08BF002413D0154CA54208BF012432
:102DC0000ED0144CA54208BF022409D0124CA542D3
:102DD00008BF032404D0114CA5427FF443AF042460
:102DE00045E7BDE8F18F0AB18161704781627047A4
:102DF0000B4A136803421CBF106000F013B8704701
:102E00000004014060100240001400480800014026
:102E10000004004800080048000C0048001000486A
:102E200014040140704700000901020002D42A483E
:102E300081547047294B02F00F021A4402F8041C17
:102E40007047274B19684FF6FF020002114000F44B
:102E5000E0600843234908431860704770B5204B71
:102E60001C68C4F302230124C3F10705052D2EBFFE
:102E70000F2504FA05F56D1E1E1D072E34BF002315
:102E8000DB1E2940994004FA03F3BDE870405B1E45
:102E90001A401143C8E70000010007D4012200F0E6
:102EA0001F01114B8A40400943F82020704710B59C
:102EB000401EB0F1807F01D3012010BD0B4C60603B
:102EC0000F214FF0FF30FFF7AFFF0021A160072077
:102ED0002060002010BD000000E400E018ED00E0DC
:102EE0000CED00E00000FA0500E100E010E000E079
:102EF00070B50E4E0446B0680025A0B14FF47A714B
:102F00000B4AB1FBF0F11068B0FBF1F0FFF7CFFF17
:102F100048B9102C07D2002221464FF0FF30FFF7AE
:102F20009DFF746000E00125284670BD94070020D5
:102F3000A007002070470000032010B5FFF781FFB5
:102F40000020FFF7D5FF0024002814BF0124FEF75E
:102F500025FD204610BD0000002200F019BE000033
:102F600038B5040001D1012032BD04F14005687874
:102F700020B9002129702046FEF727FD00F040F817
:102F80006068216820F0706008612068816821F421
:102F900000418160E06821680128A0680CBF40F40E
:102FA000004040F404408860E068022803D12068B3
:102FB0004FF4006141602068416841F0007141F4C4
:102FC000004141602068C16821F40041C16060692E
:102FD0002169A2690143206841EA0221C160206A97
:102FE000E1692268014311602068016841F0010134
:102FF000016000206860202169702063A87032BDE4
:103000002420687020680168490849000160704701
:103010008146CDF80090192301224FF4004130463B
:1030200000F0F7B82DE9FE4F00F087F84ED10C9D67
:10303000002D1CBF0D9F002F03D14FF40071616064
:103040003FE02078012841D001212170FEF746FDA4
:10305000FFF7DEFF002834D1212000F086F800F0D1
:1030600097F810B1002020702BE0708DFF25B0F58F
:10307000807F19D300F072F800F05BF80E9F4A468B
:103080003946304600F0E6F800281AD100F025F85D
:1030900011D089B279B900F030F890B900F019F880
:1030A00005D300F05BF804E000F050F8E4E700F02E
:1030B0004DF800F03EF8708D0028E0D100F034F8B3
:1030C00008B1012003E000F020F800E00220BDE894
:1030D000FE8F708DB0F5807F7047706A326801781E
:1030E0009162706A411C7162708D411E7185308DD4
:1030F000411E3185708D00287047CDF800903B4609
:1031000000228021304600F084B831682020C86158
:103110003168DFF878004A6802404A602021617017
:103120000020A070207070474A463946304600F0B3
:10313000B9B84146304600F007B9064606F14004EA
:1031400088466078202892469B467047728D32856B
:10315000002000904FF00073D2B2704735850020F8
:1031600000904FF08073FF22704760704021A17083
:10317000002060607562778570635B460E990091F0
:103180005246CDF8049041463046704700E800FEB4
:103190002DE9FC4100F017F84FF08073EAB200F01F
:1031A000D3F800F024F858B9012D02D000F01CF833
:1031B00030B900F012F88021204600F02AF800B162
:1031C0000120BDE8F6811746DDF82080099EDFF872
:1031D0009C2100921D46044670472068FFB287621A
:1031E00000964346002270472168380A88623246BA
:1031F000414620462EE0006881698A0744BF0021CD
:1032000081628169CA0703D4816941F0010181614A
:1032100070472DE9F041069F05460E4690461C4634
:10322000286881693140B1420CBF0120002040452F
:103230000DD114F1010FF3D0FEF750FCC01B8442F6
:1032400001D3002CECD100F021F8012000E0002097
:10325000BDE8F08170B505460C46164628688169C0
:10326000880711D400F036F808B1012070BD14F1C0
:10327000010FF3D0FEF732FC801B844201D3002CF7
:10328000ECD100F003F8F0E7002070BD05F140003C
:103290002022416841F0200141604270002181708C
:1032A0000170704770B505460C461646286881695E
:1032B00088060DD400F00EF840B9FEF70FFC801B15
:1032C000844201D3002CF1D1FFF7E0FF012070BD53
:1032D000002070BD324621462846FFE770B50546FE
:1032E0000C4628688169C80616462BD5286881696E
:1032F0008A060FD414F1010FF8D0FEF7EFFB801B04
:10330000844201D3002CF1D105F14000416841F025
:10331000200111E01021C16120202A68D0612846D7
:10332000FFF769FF2868124A41681140416005F1C2
:103330004000416841F0040141602022FFF7ADFFE9
:10334000012070BD002070BD70B50068049C456808
:10335000084E46EA5456B543C1F30901294341EAF0
:10336000024119432143416070BD000000200080EC
:1033700000E800FEFF63FF0330B500F14002537820
:10338000202B0CD11478012C09D000F01DF824F466
:1033900080541C6003681D682943196020E00220E6
:1033A00030BD30B500F140025378202B0AD114789B
:1033B000012C07D000F008F824F4706444EA0124DA
:1033C0001C600DE0022030BD0123137024245470D2
:1033D00003681D686D086D001D6003681C687047F8
:1033E0000068016841F00101016020205070002157
:1033F0001170002030BD00004AB1000011F8013BFF
:10340000521E00F8013B1CBF11F8013BF8E7704762
:1034100000F0D7BBF0B42449244AD1F88070566834
:103420001078234C234D6FF0004320BB082005FB90
:10343000064637461E46B7FBF6F6401E03FB1676D9
:10344000F5D10F46102005FB06469C46B6FBFCFC5A
:1034500003FB1C663E601E4657F804CB05FB0C4C74
:10346000BCFBF6F603FB16C6401E47F8046BEAD118
:10347000CF6F0120107005FB06461C4607F01F07A2
:10348000B6FBF4F451F8270003FB146641F82760FB
:10349000C1F88000566020F04040F0BC70470349FE
:1034A00000220A7048607047DC0D0020A40700204D
:1034B0005FF36E3C0D66190001B584B00A2001214E
:1034C00004AA029001910092012300227821DFF8E2
:1034D0008803FFF7A7FD05B000BD0020ECE780B52D
:1034E000642000F0BFF9AE20FFF7E6FF2020FFF7D1
:1034F000E3FF00F075F8B020FFF7DEFFC820FFF70C
:10350000DBFFFFF7EAFF00F06BF84020FFF7D4FF86
:103510008120FFF7D1FFFF20FFF7CEFFA120FFF7AB
:10352000CBFFA620FFF7C8FFA820FFF7C5FF3F206D
:10353000FFF7C2FFA420FFF7BFFFD320FFF7BCFFB8
:10354000FFF7CBFFD520FFF7B7FFF020FFF7B4FF61
:10355000D920FFF7B1FF2220FFF7AEFFDA20FFF7F7
:10356000ABFF1220FFF7A8FFDB20FFF7A5FF20200D
:10357000FFF7A2FF8D20FFF79FFF1420FFF79CFFAE
:10358000AF20FFF799FF002000F02CF800F008F8BA
:10359000DFF8C8020021012301604371012002BD50
:1035A0007FB50024DFF8B052DFF8B462A4F1500018
:1035B000C0B2FFF781FFFFF790FF00F011F8642021
:1035C000802106EBC4120290019100920123402257
:1035D00078212846FFF726FD641C082CE6DB7FBD1A
:1035E000102069E700280CBF0022FF224FF4806101
:1035F000DFF86C0200F0C8BA802800DB704770B5B5
:1036000040290EDACB08DFF85452DFF8544200EBC1
:10361000C3102B7933B13AB100F00AF822EA010164
:10362000215470BD012AF7D100F002F81143F7E7E9
:103630008D0801EB5576F608225C0123A1EBC6014B
:1036400003FA01F17047DFF81422108051807047AF
:103650002DE9F84FDFF804420F46914621883A7869
:103660005218802ABFBF61887A785218402AA8BFB2
:10367000002029DA0025ADF8000000E06D1C787804
:1036800085421BD27A68BDF800106688B4F80080C5
:1036900000FB015032F810A04FF0000BAE19387843
:1036A0008345EBD20AFA0BF109040BEB080000F09A
:1036B00042F800F00BF80BF1010BF0E761880818F5
:1036C0006080BDF80000C0B2BDE8F28FB1B280B238
:1036D00092E72DE9F14FDFF88441B4F800800D4600
:1036E0009146002600E0761C687886421CD29DF840
:1036F00000106A686788203900FB016032F810A06A
:103700004FF0000BBF1B28788345ECD20AFA0BF070
:1037100002040BEB080100F00EF889B2B8B2FFF713
:103720006BFF0BF1010BEEE72878404420809DF8F9
:103730000000BDE8F28F04D4B9F101029241D20F2A
:1037400070474A4670472DE9F84F04468028A8BFC5
:103750007F249446BCF1800FA8BF4FF07F0C0D462C
:10376000402DA8BF3F25402BA8BF3F234FF6FF7831
:10377000644534BFACEB0401A4EB0C019D4234BFA3
:10378000581BE81A644534BF4FF0010BC3469D42F5
:1037900009B200B238BF4FF001088842B4BF0F46EB
:1037A000474207EBD7770A9E7F10A9B91846A8426F
:1037B0003CBF2B460546E346A34588BFA3462DB232
:1037C0001C4605E03246A9B25846FFF715FF6D1CAE
:1037D00029B28C42F6DA34E0A0B99B46AB4588BFEB
:1037E000AB466046A0423CBFA446044625B26446B0
:1037F00004E03246594600F028F86D1C29B28C428C
:10380000F7DA1EE0ADF802C0ADF800308A46814616
:103810000BE038B2CAF100018142BCBFA7EB090737
:103820005C444845BCBF5744454400F010F8BDF81F
:103830000210A0B2884202BFBDF80020A8B2904298
:10384000E7D1BDE8F18F5246B9B2A8B2D4E632460C
:10385000A9B2A0B2D0E60000600E0020B80E002091
:10386000AC07002038B50446FEF738F914F1010F13
:10387000054602D0044988680419FEF72FF9401B59
:10388000A042FAD331BD00BF940700202DE9FC47C8
:1038900005464FF000082868DFF87062DFF87072A4
:1038A000010353D5F06CC100C1460AD4F06C40F05E
:1038B0008050F0644FF00109F06C00F080500090EF
:1038C0000098DFF85042206840F480702060FEF7D6
:1038D00005F982462068C10506D4FEF7FFF8A0EB83
:1038E0000A000328F6D321E0386810F440701CBFAA
:1038F000296D88420BD03868396841F480313960CD
:1039000020F440703A6822F480323A603860C00790
:103910000FD5FEF7E3F804463868810709D4FEF7AF
:10392000DDF8001B41F289318842F5D34FF00308DE
:1039300005E03968286D21F4407101433960B9F11F
:10394000000F03D0F06C20F08050F0642878C1079D
:1039500005D5F26F6868920840EA8202F26729781A
:10396000880705D5F16FA86821F00C010143F167C4
:103970002978480705D5F16FE86821F03001014347
:10398000F1672978080705D5F16F286921F0C00192
:103990000143F1672978C80605D5F16F686921F4FC
:1039A00040710143F1672978880605D5F16FA86950
:1039B00021F440610143F1672978480605D5F16F8C
:1039C000E86921F440510143F1672978080605D5DB
:1039D000F16F286A21F440410143F1672968C80565
:1039E00005D5F16F686A21F440310143F167296818
:1039F000880305D5F968A86A890840EA8101F96059
:103A00002968880505D5F16FE86A21F44021014352
:103A1000F167296848050AD5F16F286B21F4401138
:103A20000143F167296BB1F5801F00F069F829683F
:103A300008050AD5F16F686B21F440010143F16775
:103A4000696BB1F5800F00F05BF82968C8040AD5EE
:103A5000F16FA86B21F040710143F167A96BB1F1DF
:103A6000807F00F04DF82968880408D5F16FE86B75
:103A700021F040610143F167E96B00F03FF82968EC
:103A8000480408D5F16F286C21F040610143F167CB
:103A9000296C00F033F8296808040AD5F16F686CC6
:103AA00021F040510143F167696CB1F1805F00F092
:103AB0001FF82968C8030AD5F16FA86C21F04041AE
:103AC0000143F167A96CB1F1804F00F011F829684A
:103AD00048030AD5F968E86C21F440110143F96004
:103AE000E96CB1F5001F00F00BF84046BDE8F68721
:103AF00003D1306840F4803030607047B1F1006F1E
:103B000003D1306840F48010306070470C100240E0
:103B10009010024000700040002200F005B8000044
:103B200062F30F2262F31F42401810F0030308D023
:103B3000C91A1FD3DB0748BF00F8012D28BF20F8A2
:103B4000022D130030B414461546103928BF20E961
:103B50003C00FAD8490728BF20E90C0048BF40F8CC
:103B6000042D890028BF20F8022D48BF00F8012D40
:103B700030BC7047C91818BF00F8012DCB0728BF0B
:103B800000F8012D7047000062F30F2262F31F421C
:103B900000B500BF130096469446103928BFA0E830
:103BA0000C50FAD85FEA417C28BF0CC048BF40F8EF
:103BB000042BC90728BF20F8022B48BF00F8012BAF
:103BC00000BD00B5020000211120ABBE002A00D0CC
:103BD000106000BD000000000000000000000000B8
:103BE0000000000000000000001000100010001095
:103BF0000010001000000010000000000028002845
:103C0000002800000000000000000000000000008C
:103C100000240024007C00240048007C0048004868
:103C20000000000000380054005000380014005418
:103C300000540038001000000020005400580030EC
:103C400000280054001400080000000000100028A4
:103C50000028001000340048004800340000000034
:103C60000010001000100000000000000000000024
:103C700000000000000800100020002000200020AC
:103C8000002000200010000800200010000800089C
:103C9000000800080008000800100020001000388C
:103CA00000100028000000000000000000000000DC
:103CB0000000000000100010007C00100010000048
:103CC00000000000000000000000000000000000F4
:103CD00000000010001000100000000000000000B4
:103CE000000000380000000000000000000000009C
:103CF00000000000000000000000001000000000B4
:103D00000008000800100010001000100020002023
:103D10000000000000380044004400540044004407
:103D20000044003800000000001000300050001077
:103D300000100010001000100000000000380044C7
:103D400000440004000800100020007C0000000077
:103D50000038004400040018000400040044003847
:103D60000000000000080018002800280048007C1F
:103D70000008000800000000007C004000400078BF
:103D80000004000400440038000000000038004433
:103D90000040007800440044004400380000000067
:103DA000007C00040008001000100020002000200B
:103DB0000000000000380044004400380044004483
:103DC0000044003800000000003800440044004473
:103DD000003C000400440038000000000000000027
:103DE00000100000000000000000001000000000B3
:103DF00000000000000000100000000000000010A3
:103E00000010001000000000000C003000400030E6
:103E1000000C000000000000000000000000007C1A
:103E20000000007C00000000000000000000000016
:103E3000006000180004001800600000000000008E
:103E400000380044000400080010001000000010BA
:103E50000000000000380044004C0054005C0040AA
:103E60000040003800000000001000280028002852
:103E70000028007C0044004400000000007800445A
:103E80000044007800440044004400780000000032
:103E9000003800440040004000400040004400382A
:103EA000000000000070004800440044004400444A
:103EB0000048007000000000007C00400040007CD2
:103EC000004000400040007C00000000007C0040FA
:103ED000004000780040004000400040000000002A
:103EE0000038004400400040005C004400440038BA
:103EF00000000000004400440044007C00440044F2
:103F000000440044000000000038001000100010C1
:103F10000010001000100038000000000004000431
:103F20000004000400040004004400380000000005
:103F30000044004800500060005000480048004421
:103F400000000000004000400040004000400040F1
:103F50000040007C000000000044006C006C005435
:103F60000044004400440044000000000044006499
:103F7000006400540054004C004C00440000000059
:103F80000038004400440044004400440044003829
:103F90000000000000780044004400440078004025
:103FA000004000400000000000380044004400448D
:103FB000004400440054003800040000007800442D
:103FC000004400440078004800480044000000001D
:103FD000003800440040003000080004004400386D
:103FE00000000000007C0010001000100010001005
:103FF0000010001000000000004400440044004491
:104000000044004400440038000000000044004424
:1040100000440028002800280010001000000000C4
:1040200000440044005400540054006C0028002850
:1040300000000000004400280028001000100028A4
:10404000002800440000000000440044002800282C
:10405000001000100010001000000000007C0004A0
:1040600000080010001000200040007C000000004C
:1040700000180010001000100010001000100010B8
:104080000010001800200020001000100010001088
:1040900000080008000000000030001000100010B0
:1040A0000010001000100010001000300010002858
:1040B0000028004400000000000000000000000094
:1040C00000000000000000000000000000000000F0
:1040D000000000FE002000100000000000000000B2
:1040E0000000000000000000000000000038004454
:1040F000003C0044004C0034000000000040004040
:1041000000580064004400440064005800000000AF
:104110000000000000380044004000400044003827
:1041200000000000000400040034004C004400447F
:10413000004C003400000000000000000038004483
:10414000007C00400044003800000000000C00101B
:10415000007C001000100010001000100000000093
:10416000000000000034004C00440044004C0034C7
:1041700000040078004000400058006400440044FF
:104180000044004400000000001000000070001017
:1041900000100010001000100000000000100000CF
:1041A000007000100010001000100010001000E05F
:1041B00000400040004800500060005000480044AB
:1041C000000000000070001000100010001000102F
:1041D00000100010000000000000000000780054F3
:1041E000005400540054005400000000000000007F
:1041F00000580064004400440044004400000000F3
:10420000000000000038004400440044004400382E
:10421000000000000000000000580064004400445A
:104220000064005800400040000000000034004CD2
:1042300000440044004C003400040004000000006E
:1042400000580064004000400040004000000000B2
:10425000000000000038004400300008004400382E
:104260000000000000200020007800200020002036
:10427000002000180000000000000000004400447E
:1042800000440044004C0034000000000000000026
:10429000004400440028002800280010000000000E
:1042A00000000000005400540054006C0028002856
:1042B0000000000000000000004400280010001072
:1042C00000280044000000000000000000440044FA
:1042D00000280028001000100010006000000000FE
:1042E000007C0008001000200040007C000000005E
:1042F0000018001000100010002000200010001016
:104300000010001800100010001000100010001025
:1043100000100010001000100030001000100010FD
:10432000000800080010001000100030000000001D
:1043300000000074004C00000000000000000000BD
:10434000F0B40246106895681318506803EB5004E7
:10435000C0071CD54D441AE013F8017B05F8017B1A
:10436000491EF9D198B113F8011BC6F38106032E3B
:1043700008BF13F8016B01EB06214942801C294458
:1043800005D011F8016B05F8016B401EF9D1A3426D
:104390000ED013F8016B16F0030104BF13F8011BD4
:1043A000C91C30090F28DBD113F8010B0F30D7E7F8
:1043B000F0BC02F10C0070470448054A016841F462
:1043C000700101604FF000601060704788ED00E000
:1043D00008ED00E0000000000000000001020304FE
:1043E00006070809FEE7FEE7FEE7FEE7FEE770477F
:1043F0007047704700F00AB84FF40050FEF7F8BC61
:104400000148FCF7ABBE0000500D002002490A68CD
:10441000886882180A6070479407002010B5074921
:1044200079441831064C7C44163404E00A68081DAF
:10443000114488470146A142F8D110BD2C0000006C
:10444000480000004EF68851CEF20001086840F4A2
:1044500070000860BFF34F8FBFF36F8F4FF0007095
:10446000E1EE100A704700003FDFFFFF1407000075
:10447000AC07002000000000C9FEFFFF3002000072
:1044800004020000000000200000FE3FFE3FFE3F4F
:10449000FE3FFE3FFE3F0000000000000000000065
:1044A000000000000000000000F00DF8002801D01E
:1044B000FFF7B4FFAFF300800020AFF30080FDF7FB
:1044C0008FFF00F002F80120704700F001B80000F3
:1044D0000746384600F002F8FBE7000080B5AFF36E
:1044E0000080024A11001820ABBEFBE72600020044
:1044F0000548014603B4684680F30988AFF300809D
:10450000FFF7A0FFFFF7D0FFA5EDF5FE01488047BC
:1045100001480047B9430008F144000800000000CA
:1045200001020304FFF7FEBFFFF7FEBFFFF7FEBF68
:10453000FFF7FEBFFFF7FEBFFFF7FEBFFFF7FEBFAF
:10454000FFF7FEBFFFF7FEBFFFF7FEBFFFF7FEBF9F
:10455000FFF7FEBFFFF7FEBFFFF7FEBFFFF7FEBF8F
:10456000FFF7FEBFFFF7FEBFFFF7FEBFFFF7FEBF7F
:10457000FFF7FEBFFFF7FEBFFFF7FEBFFFF7FEBF6F
:10458000FFF7FEBFFFF7FEBFFFF7FEBFFFF7FEBF5F
:10459000FFF7FEBFFFF7FEBFFFF7FEBFFFF7FEBF4F
:1045A000FFF7FEBFFFF7FEBFFFF7FEBFFFF7FEBF3F
:1045B000FFF7FEBFFFF7FEBFFFF7FEBFFFF7FEBF2F
:1045C000FFF7FEBFFFF7FEBFFFF7FEBFFFF7FEBF1F
:1045D000FFF7FEBFFFF7FEBFFFF7FEBFFFF7FEBF0F
:1045E000FFF7FEBFFFF7FEBFFFF7FEBFFFF7FEBFFF
:1045F000FFF7FEBFFFF7FEBFFFF7FEBFFFF7FEBFEF
:10460000FFF7FEBFFFF7FEBFFFF7FEBFFFF7FEBFDE
:10461000FFF7FEBFFFF7FEBFFFF7FEBFFFF7FEBFCE
:10462000FFF7FEBFFFF7FEBFFFF7FEBFFFF7FEBFBE
:10463000FFF7FEBFFFF7FEBFFFF7FEBFFFF7FEBFAE
:10464000FFF7FEBFFFF7FEBFFFF7FEBFFFF7FEBF9E
:10465000FFF7FEBFFFF7FEBFFFF7FEBFFFF7FEBF8E
:10466000FFF7FEBFFFF7FEBFFFF7FEBFFFF7FEBF7E
:10467000FFF7FEBFFFF7FEBFFFF7FEBFFFF7FEBF6E
:10468000FFF7FEBFFFF7FEBFFFF7FEBFFFF7FEBF5E
:10469000FFF7FEBFFFF7FEBFFFF7FEBFFFF7FEBF4E
:1046A000FFF7FEBFFFF7FEBFFFF7FEBFF0170208E0
:1046B00008000088440008070A0000D43B00080BEB
:1046C000120000D8010008000192011583010004C6
:1046D000F11701E12CE140F11F4CF11F40F103C043
:1046E000A101F113406124F13FFC2101F18B80F322
:1046F00015010044F10B01A12CE13CF11BFC61010F
:10470000F14F80F10370A101F10F10F10B01C30112
:104710000004F10301F16F80A101F1036CF1173C7A
:104720002101E12CF11FBCF10770F10B38F10B2CCA
:10473000F11BBCA1016134F50F00F10FA8F11F803E
:10474000E170F11FBCF315010094F10B01E144F19C
:1047500027C46101F19B402128120904121104129F
:1047600019041221041229041231041239041241CD
:10477000041249041251041259041261041269040A
:10478000127104127904120404120C04121404129B
:104790001C04122404122C04123404120E044302CA
:0E47A000000161905310000C3324F412210C20
:04000005080044F1BA
:00000001FF
